{
  "abi": [
    {
      "inputs": [
        {
          "internalType": "address",
          "name": "_priceFeed",
          "type": "address"
        }
      ],
      "stateMutability": "nonpayable",
      "type": "constructor"
    },
    {
      "inputs": [
        {
          "internalType": "uint256",
          "name": "ethAmount",
          "type": "uint256"
        }
      ],
      "name": "EthToUSD",
      "outputs": [
        {
          "internalType": "uint256",
          "name": "",
          "type": "uint256"
        }
      ],
      "stateMutability": "view",
      "type": "function"
    },
    {
      "inputs": [
        {
          "internalType": "uint256",
          "name": "USD",
          "type": "uint256"
        }
      ],
      "name": "USDToWei",
      "outputs": [
        {
          "internalType": "uint256",
          "name": "",
          "type": "uint256"
        }
      ],
      "stateMutability": "view",
      "type": "function"
    },
    {
      "inputs": [
        {
          "internalType": "address",
          "name": "",
          "type": "address"
        }
      ],
      "name": "addressToPhaestus",
      "outputs": [
        {
          "internalType": "address payable",
          "name": "phaestusAddress",
          "type": "address"
        },
        {
          "internalType": "uint8",
          "name": "numCPUs",
          "type": "uint8"
        },
        {
          "internalType": "uint8",
          "name": "numGPUs",
          "type": "uint8"
        },
        {
          "internalType": "uint256",
          "name": "endTime",
          "type": "uint256"
        },
        {
          "internalType": "uint256",
          "name": "rate",
          "type": "uint256"
        },
        {
          "internalType": "enum TorpedoFactory.gpuType",
          "name": "gpuType",
          "type": "uint8"
        }
      ],
      "stateMutability": "view",
      "type": "function"
    },
    {
      "inputs": [
        {
          "components": [
            {
              "internalType": "uint8",
              "name": "numCPUs",
              "type": "uint8"
            },
            {
              "internalType": "uint8",
              "name": "numGPUs",
              "type": "uint8"
            },
            {
              "internalType": "uint16",
              "name": "totalTime",
              "type": "uint16"
            },
            {
              "internalType": "enum TorpedoFactory.gpuType",
              "name": "gpuType",
              "type": "uint8"
            }
          ],
          "internalType": "struct TorpedoFactory.SessionRequest",
          "name": "sessionRequest",
          "type": "tuple"
        }
      ],
      "name": "calculateUSDCost",
      "outputs": [
        {
          "internalType": "uint256",
          "name": "",
          "type": "uint256"
        }
      ],
      "stateMutability": "view",
      "type": "function"
    },
    {
      "inputs": [
        {
          "components": [
            {
              "internalType": "uint8",
              "name": "numCPUs",
              "type": "uint8"
            },
            {
              "internalType": "uint8",
              "name": "numGPUs",
              "type": "uint8"
            },
            {
              "internalType": "uint16",
              "name": "totalTime",
              "type": "uint16"
            },
            {
              "internalType": "enum TorpedoFactory.gpuType",
              "name": "gpuType",
              "type": "uint8"
            }
          ],
          "internalType": "struct TorpedoFactory.SessionRequest",
          "name": "sessionRequest",
          "type": "tuple"
        }
      ],
      "name": "calculateWeiCost",
      "outputs": [
        {
          "internalType": "uint256",
          "name": "",
          "type": "uint256"
        }
      ],
      "stateMutability": "view",
      "type": "function"
    },
    {
      "inputs": [
        {
          "components": [
            {
              "internalType": "uint8",
              "name": "numCPUs",
              "type": "uint8"
            },
            {
              "internalType": "uint8",
              "name": "numGPUs",
              "type": "uint8"
            },
            {
              "internalType": "uint16",
              "name": "totalTime",
              "type": "uint16"
            },
            {
              "internalType": "enum TorpedoFactory.gpuType",
              "name": "gpuType",
              "type": "uint8"
            }
          ],
          "internalType": "struct TorpedoFactory.SessionRequest",
          "name": "sessionRequest",
          "type": "tuple"
        }
      ],
      "name": "createSession",
      "outputs": [
        {
          "internalType": "address",
          "name": "",
          "type": "address"
        }
      ],
      "stateMutability": "payable",
      "type": "function"
    },
    {
      "inputs": [],
      "name": "deductResources",
      "outputs": [],
      "stateMutability": "nonpayable",
      "type": "function"
    },
    {
      "inputs": [
        {
          "internalType": "uint256",
          "name": "addedTime",
          "type": "uint256"
        }
      ],
      "name": "extendSession",
      "outputs": [],
      "stateMutability": "payable",
      "type": "function"
    },
    {
      "inputs": [],
      "name": "getClientSessionAddress",
      "outputs": [
        {
          "internalType": "address",
          "name": "",
          "type": "address"
        }
      ],
      "stateMutability": "view",
      "type": "function"
    },
    {
      "inputs": [],
      "name": "getNow",
      "outputs": [
        {
          "internalType": "uint256",
          "name": "",
          "type": "uint256"
        }
      ],
      "stateMutability": "view",
      "type": "function"
    },
    {
      "inputs": [],
      "name": "getPoolCapacity",
      "outputs": [
        {
          "internalType": "uint256",
          "name": "",
          "type": "uint256"
        },
        {
          "internalType": "uint256",
          "name": "",
          "type": "uint256"
        },
        {
          "internalType": "uint256",
          "name": "",
          "type": "uint256"
        }
      ],
      "stateMutability": "view",
      "type": "function"
    },
    {
      "inputs": [],
      "name": "getRatePrecision",
      "outputs": [
        {
          "internalType": "uint256",
          "name": "",
          "type": "uint256"
        }
      ],
      "stateMutability": "view",
      "type": "function"
    },
    {
      "inputs": [],
      "name": "owner",
      "outputs": [
        {
          "internalType": "address",
          "name": "",
          "type": "address"
        }
      ],
      "stateMutability": "view",
      "type": "function"
    },
    {
      "inputs": [
        {
          "internalType": "uint256",
          "name": "",
          "type": "uint256"
        }
      ],
      "name": "phaestusNodes",
      "outputs": [
        {
          "internalType": "address payable",
          "name": "phaestusAddress",
          "type": "address"
        },
        {
          "internalType": "uint8",
          "name": "numCPUs",
          "type": "uint8"
        },
        {
          "internalType": "uint8",
          "name": "numGPUs",
          "type": "uint8"
        },
        {
          "internalType": "uint256",
          "name": "endTime",
          "type": "uint256"
        },
        {
          "internalType": "uint256",
          "name": "rate",
          "type": "uint256"
        },
        {
          "internalType": "enum TorpedoFactory.gpuType",
          "name": "gpuType",
          "type": "uint8"
        }
      ],
      "stateMutability": "view",
      "type": "function"
    },
    {
      "inputs": [],
      "name": "priceFeed",
      "outputs": [
        {
          "internalType": "contract AggregatorV3Interface",
          "name": "",
          "type": "address"
        }
      ],
      "stateMutability": "view",
      "type": "function"
    },
    {
      "inputs": [
        {
          "internalType": "uint8",
          "name": "numCPUs",
          "type": "uint8"
        },
        {
          "internalType": "uint8",
          "name": "numGPUs",
          "type": "uint8"
        },
        {
          "internalType": "uint256",
          "name": "endTime",
          "type": "uint256"
        },
        {
          "internalType": "uint256",
          "name": "rate",
          "type": "uint256"
        },
        {
          "internalType": "enum TorpedoFactory.gpuType",
          "name": "_gpuType",
          "type": "uint8"
        }
      ],
      "name": "registerPhaestus",
      "outputs": [],
      "stateMutability": "nonpayable",
      "type": "function"
    },
    {
      "inputs": [],
      "name": "releaseResources",
      "outputs": [],
      "stateMutability": "nonpayable",
      "type": "function"
    },
    {
      "inputs": [
        {
          "internalType": "uint256",
          "name": "index",
          "type": "uint256"
        }
      ],
      "name": "viewPhaestus",
      "outputs": [
        {
          "components": [
            {
              "internalType": "address payable",
              "name": "phaestusAddress",
              "type": "address"
            },
            {
              "internalType": "uint8",
              "name": "numCPUs",
              "type": "uint8"
            },
            {
              "internalType": "uint8",
              "name": "numGPUs",
              "type": "uint8"
            },
            {
              "internalType": "uint256",
              "name": "endTime",
              "type": "uint256"
            },
            {
              "internalType": "uint256",
              "name": "rate",
              "type": "uint256"
            },
            {
              "internalType": "enum TorpedoFactory.gpuType",
              "name": "gpuType",
              "type": "uint8"
            }
          ],
          "internalType": "struct TorpedoFactory.Phaestus",
          "name": "",
          "type": "tuple"
        }
      ],
      "stateMutability": "view",
      "type": "function"
    }
  ],
  "bytecode": "608060405260646001556509184e72a00060025534801561001f57600080fd5b5060405161328c38038061328c83398101604081905261003e9161006c565b600480546001600160a01b039092166001600160a01b0319928316179055600080549091163317905561009c565b60006020828403121561007e57600080fd5b81516001600160a01b038116811461009557600080fd5b9392505050565b6131e1806100ab6000396000f3fe6080604052600436106200011f5760003560e01c8063741bef1a11620000a1578063a7143ccf116200006c578063a7143ccf1462000360578063a7663cee1462000385578063b0d18d2614620003aa578063bbe4fd5014620003cf578063c6bc684614620003e457600080fd5b8063741bef1a14620002df5780638a7cadf114620003015780638da5cb5b14620003195780639a733e84146200033b57600080fd5b8063465e049911620000ee578063465e0499146200020b57806347c4de7614620002305780634d9fdd3e1462000264578063711b82f614620002985780637359550214620002c857600080fd5b8063228eff421462000124578063251d10b014620001a65780632c8f85f414620001bf5780632d91314014620001d7575b600080fd5b3480156200013157600080fd5b5062000189620001433660046200178c565b60066020526000908152604090208054600182015460028301546003909301546001600160a01b0383169360ff600160a01b8504811694600160a81b9004811693921686565b6040516200019d96959493929190620017e5565b60405180910390f35b620001bd620001b73660046200182e565b62000411565b005b348015620001cc57600080fd5b50620001bd620006e6565b348015620001e457600080fd5b50620001fc620001f63660046200182e565b620008b2565b6040519081526020016200019d565b3480156200021857600080fd5b50620001896200022a3660046200182e565b62000911565b3480156200023d57600080fd5b50620002486200096c565b604080519384526020840192909252908201526060016200019d565b3480156200027157600080fd5b5062000289620002833660046200182e565b62000aa4565b6040516200019d919062001848565b620002af620002a9366004620018ca565b62000b92565b6040516001600160a01b0390911681526020016200019d565b348015620002d557600080fd5b50600154620001fc565b348015620002ec57600080fd5b50600454620002af906001600160a01b031681565b3480156200030e57600080fd5b50620001bd62000d29565b3480156200032657600080fd5b50600054620002af906001600160a01b031681565b3480156200034857600080fd5b50620001fc6200035a366004620018ca565b62000ed9565b3480156200036d57600080fd5b50620001fc6200037f3660046200182e565b62000f01565b3480156200039257600080fd5b50620001fc620003a4366004620018ca565b62000f3b565b348015620003b757600080fd5b50620001bd620003c93660046200196b565b62000f8a565b348015620003dc57600080fd5b5042620001fc565b348015620003f157600080fd5b50336000908152600560205260409020546001600160a01b0316620002af565b336000908152600560209081526040808320548151637492174f60e01b815291516001600160a01b0390911693849390928492637492174f926004808401939192918290030181865afa1580156200046d573d6000803e3d6000fd5b505050506040513d601f19601f82011682018060405250810190620004939190620019cd565b9050816001600160a01b0316639ea6b4f46040518163ffffffff1660e01b8152600401602060405180830381865afa158015620004d4573d6000803e3d6000fd5b505050506040513d601f19601f82011682018060405250810190620004fa9190620019cd565b6001600160a01b0316336001600160a01b0316146200056c5760405162461bcd60e51b815260206004820152602360248201527f53656e646572206973206e6f7420636c69656e74206f6620746865207365737360448201526234b7b760e91b60648201526084015b60405180910390fd5b6001600160a01b03811660009081526006602052604090206001015462000594854262001a03565b10620005f75760405162461bcd60e51b815260206004820152602b60248201527f5468697320706861657374757320776f6e2774206265206f6e6c696e6520666f60448201526a722074686174206c6f6e6760a81b606482015260840162000563565b6001546001600160a01b0382166000908152600660205260408120600201549091906200062b90620001f690889062001a1e565b62000637919062001a56565b9050803411620006815760405162461bcd60e51b8152602060048201526014602482015273125b9cdd59999a58da595b9d081c185e5b595b9d60621b604482015260640162000563565b604051630251d10b60e41b8152600481018690526001600160a01b0384169063251d10b09034906024016000604051808303818588803b158015620006c557600080fd5b505af1158015620006da573d6000803e3d6000fd5b50505050505050505050565b6000339050600060066000836001600160a01b0316637492174f6040518163ffffffff1660e01b8152600401602060405180830381865afa15801562000730573d6000803e3d6000fd5b505050506040513d601f19601f82011682018060405250810190620007569190620019cd565b6001600160a01b03166001600160a01b031681526020019081526020016000209050816001600160a01b03166309b0ca7a6040518163ffffffff1660e01b8152600401602060405180830381865afa158015620007b7573d6000803e3d6000fd5b505050506040513d601f19601f82011682018060405250810190620007dd919062001a6d565b81548290601490620007fb908490600160a01b900460ff1662001a8d565b92506101000a81548160ff021916908360ff160217905550816001600160a01b0316631a63b1006040518163ffffffff1660e01b8152600401602060405180830381865afa15801562000852573d6000803e3d6000fd5b505050506040513d601f19601f8201168201806040525081019062000878919062001a6d565b8154829060159062000896908490600160a81b900460ff1662001a8d565b92506101000a81548160ff021916908360ff1602179055505050565b600080620008c983670de0b6b3a764000062001a1e565b90506000620008d7620012c9565b9050670de0b6b3a764000081620008ef828562001a1e565b620008fb919062001a56565b6200090890600162001a03565b95945050505050565b600781815481106200092257600080fd5b600091825260209091206004909102018054600182015460028301546003909301546001600160a01b038316945060ff600160a01b8404811694600160a81b909404811693911686565b60008080808080805b60075481101562000a975760006007828154811062000998576200099862001ab3565b60009182526020918290206040805160c081018252600490930290910180546001600160a01b038116845260ff600160a01b8204811695850195909552600160a81b900484169183019190915260018101546060830152600280820154608084015260038201549293919260a0850192169081111562000a1c5762000a1c620017ac565b600281111562000a305762000a30620017ac565b81525050905084816020015160ff16111562000a5157806020015160ff1694505b83816040015160ff16111562000a6c57806040015160ff1693505b828160600151111562000a8157806060015192505b508062000a8e8162001ac9565b91505062000975565b5091959094509092509050565b62000adb6040805160c08101825260008082526020820181905291810182905260608101829052608081018290529060a082015290565b6007828154811062000af15762000af162001ab3565b60009182526020918290206040805160c081018252600490930290910180546001600160a01b038116845260ff600160a01b8204811695850195909552600160a81b900484169183019190915260018101546060830152600280820154608084015260038201549293919260a0850192169081111562000b755762000b75620017ac565b600281111562000b895762000b89620017ac565b90525092915050565b600062000b9f8262000ed9565b34101562000be75760405162461bcd60e51b81526020600482015260146024820152731a5b9cdd59999a58da595b9d081c185e5b595b9d60621b604482015260640162000563565b62000bf28262001358565b805462000c0291600391620016bb565b50600354604080514260208083019190915244828401528251808303840181526060909201909252805191012060009162000c3d9162001ae5565b905060006007828154811062000c575762000c5762001ab3565b906000526020600020906004020160000160009054906101000a90046001600160a01b031690506000348560000151866020015187604001518860600151338760405162000ca59062001710565b62000cb69695949392919062001afc565b6040518091039082f090508015801562000cd4573d6000803e3d6000fd5b5033600090815260056020908152604080832080546001600160a01b0319166001600160a01b038616179055805192835290820190819052905191925062000d2091600391906200171e565b50949350505050565b6000339050600060066000836001600160a01b0316637492174f6040518163ffffffff1660e01b8152600401602060405180830381865afa15801562000d73573d6000803e3d6000fd5b505050506040513d601f19601f8201168201806040525081019062000d999190620019cd565b6001600160a01b03166001600160a01b031681526020019081526020016000209050816001600160a01b03166309b0ca7a6040518163ffffffff1660e01b8152600401602060405180830381865afa15801562000dfa573d6000803e3d6000fd5b505050506040513d601f19601f8201168201806040525081019062000e20919062001a6d565b8154829060149062000e3e908490600160a01b900460ff1662001b4c565b92506101000a81548160ff021916908360ff160217905550816001600160a01b0316631a63b1006040518163ffffffff1660e01b8152600401602060405180830381865afa15801562000e95573d6000803e3d6000fd5b505050506040513d601f19601f8201168201806040525081019062000ebb919062001a6d565b8154829060159062000896908490600160a81b900460ff1662001b4c565b60008060015462000eee620001f68562000f3b565b62000efa919062001a56565b9392505050565b60008062000f0e620012c9565b90506000670de0b6b3a764000062000f27858462001a1e565b62000f33919062001a56565b949350505050565b60008062000f498362001548565b90506000836040015161ffff166007838154811062000f6c5762000f6c62001ab3565b90600052602060002090600402016002015462000f33919062001a1e565b60028560ff16101562000fe05760405162461bcd60e51b815260206004820152601e60248201527f4d7573742068617665206174206c6561737420322043505520636f7265730000604482015260640162000563565b62000fee4261e10062001a03565b8311620010535760405162461bcd60e51b815260206004820152602c60248201527f5068616573747573206d757374206265206f6e6c696e6520666f72206174206c60448201526b65617374203420686f75727360a01b606482015260840162000563565b60ff841615620010cf576000816002811115620010745762001074620017ac565b03620010cf5760405162461bcd60e51b815260206004820152602360248201527f596f7520686176652061204750552e2053706563696679207479706520706c6560448201526261736560e81b606482015260840162000563565b60076040518060c00160405280336001600160a01b031681526020018760ff1681526020018660ff1681526020018581526020018481526020018360028111156200111e576200111e620017ac565b90528154600180820184556000938452602093849020835160049093020180549484015160408501516001600160a01b039094166001600160a81b031990961695909517600160a01b60ff968716021760ff60a81b1916600160a81b9590931694909402919091178355606082015183820155608082015160028085019190915560a08301516003850180549495949193909260ff19909216918490811115620011cc57620011cc620017ac565b02179055505060078054909150620011e79060019062001b74565b81548110620011fa57620011fa62001ab3565b60009182526020808320338452600690915260409092206004909102909101805482546001600160a01b031981166001600160a01b03929092169182178455825460ff600160a01b9182900481169091026001600160a81b0319909216909217178084558254600160a81b9081900483160260ff60a81b199091161783556001808301548185015560028084015481860155600380850154908601805495969591909416939260ff19909116918490811115620012bb57620012bb620017ac565b021790555050505050505050565b6004805460408051633fabe5a360e21b8152905160009384936001600160a01b03169263feaf968c928183019260a0928290030181865afa15801562001313573d6000803e3d6000fd5b505050506040513d601f19601f8201168201806040525081019062001339919062001ba9565b505050915050806402540be40062001352919062001bf2565b91505090565b600080620013668362001548565b905060006007828154811062001380576200138062001ab3565b60009182526020918290206040805160c081018252600490930290910180546001600160a01b038116845260ff600160a01b8204811695850195909552600160a81b900484169183019190915260018101546060830152600280820154608084015260038201549293919260a08501921690811115620014045762001404620017ac565b6002811115620014185762001418620017ac565b905250905060005b6007548110156200153d5760006007828154811062001443576200144362001ab3565b60009182526020918290206040805160c081018252600490930290910180546001600160a01b038116845260ff600160a01b8204811695850195909552600160a81b900484169183019190915260018101546060830152600280820154608084015260038201549293919260a08501921690811115620014c757620014c7620017ac565b6002811115620014db57620014db620017ac565b81525050905082608001518160800151036200152757600380546001810182556000919091527fc2575a0e9e593c00f959f8c92f12db2869c3395a3b0502d05e2516446f71f85b018290555b5080620015348162001ac9565b91505062001420565b506003949350505050565b60025460009080825b600754811015620016b25760006007828154811062001574576200157462001ab3565b60009182526020918290206040805160c081018252600490930290910180546001600160a01b038116845260ff600160a01b8204811695850195909552600160a81b900484169183019190915260018101546060830152600280820154608084015260038201549293919260a08501921690811115620015f857620015f8620017ac565b60028111156200160c576200160c620017ac565b815250509050856000015160ff16816020015160ff16101580156200163f5750856020015160ff16816040015160ff1610155b80156200164f5750806080015183115b80156200168b575085606001516002811115620016705762001670620017ac565b8160a001516002811115620016895762001689620017ac565b145b156200169c57806080015192508193505b5080620016a98162001ac9565b91505062001551565b50909392505050565b828054828255906000526020600020908101928215620016fe5760005260206000209182015b82811115620016fe578254825591600101919060010190620016e1565b506200170c9291506200175c565b5090565b6115288062001c8483390190565b828054828255906000526020600020908101928215620016fe579160200282015b82811115620016fe5782518255916020019190600101906200173f565b5b808211156200170c57600081556001016200175d565b6001600160a01b03811681146200178957600080fd5b50565b6000602082840312156200179f57600080fd5b813562000efa8162001773565b634e487b7160e01b600052602160045260246000fd5b60038110620017e157634e487b7160e01b600052602160045260246000fd5b9052565b6001600160a01b038716815260ff868116602083015285166040820152606081018490526080810183905260c081016200182360a0830184620017c2565b979650505050505050565b6000602082840312156200184157600080fd5b5035919050565b600060c08201905060018060a01b03835116825260ff602084015116602083015260ff6040840151166040830152606083015160608301526080830151608083015260a08301516200189e60a0840182620017c2565b5092915050565b60ff811681146200178957600080fd5b803560038110620018c557600080fd5b919050565b600060808284031215620018dd57600080fd5b6040516080810181811067ffffffffffffffff821117156200190f57634e487b7160e01b600052604160045260246000fd5b60405282356200191f81620018a5565b815260208301356200193181620018a5565b6020820152604083013561ffff811681146200194c57600080fd5b60408201526200195f60608401620018b5565b60608201529392505050565b600080600080600060a086880312156200198457600080fd5b85356200199181620018a5565b94506020860135620019a381620018a5565b93506040860135925060608601359150620019c160808701620018b5565b90509295509295909350565b600060208284031215620019e057600080fd5b815162000efa8162001773565b634e487b7160e01b600052601160045260246000fd5b6000821982111562001a195762001a19620019ed565b500190565b600081600019048311821515161562001a3b5762001a3b620019ed565b500290565b634e487b7160e01b600052601260045260246000fd5b60008262001a685762001a6862001a40565b500490565b60006020828403121562001a8057600080fd5b815162000efa81620018a5565b600060ff821660ff84168082101562001aaa5762001aaa620019ed565b90039392505050565b634e487b7160e01b600052603260045260246000fd5b60006001820162001ade5762001ade620019ed565b5060010190565b60008262001af75762001af762001a40565b500690565b60ff87811682528616602082015261ffff8516604082015260c0810162001b276060830186620017c2565b6001600160a01b0393841660808301529190921660a090920191909152949350505050565b600060ff821660ff84168060ff0382111562001b6c5762001b6c620019ed565b019392505050565b60008282101562001b895762001b89620019ed565b500390565b805169ffffffffffffffffffff81168114620018c557600080fd5b600080600080600060a0868803121562001bc257600080fd5b62001bcd8662001b8e565b9450602086015193506040860151925060608601519150620019c16080870162001b8e565b60006001600160ff1b038184138284138082168684048611161562001c1b5762001c1b620019ed565b600160ff1b600087128281168783058912161562001c3d5762001c3d620019ed565b6000871292508782058712848416161562001c5c5762001c5c620019ed565b8785058712818416161562001c755762001c75620019ed565b50505092909302939250505056fe6080604052600360045560405162001528380380620015288339810160408190526200002b9162000228565b6200003633620000d4565b6000805460ff878116600160a81b0260ff60a81b19918a16600160a01b029190911661ffff60a01b19909216919091171790556003849055600580546001600160a01b038085166001600160a01b0319928316811790935560068054918516919092161790558390620000a99062000124565b5050600a8054346009556001600160a81b0319163360ff60a01b191617905550620002a59350505050565b600080546001600160a01b038381166001600160a01b0319831681178455604051919092169283917f8be0079c531659141344cd1fd0a4f28419497f9722a3daafe3b4186f6b6457e09190a35050565b6000546001600160a01b03163314620001845760405162461bcd60e51b815260206004820181905260248201527f4f776e61626c653a2063616c6c6572206973206e6f7420746865206f776e657260448201526064015b60405180910390fd5b6001600160a01b038116620001eb5760405162461bcd60e51b815260206004820152602660248201527f4f776e61626c653a206e6577206f776e657220697320746865207a65726f206160448201526564647265737360d01b60648201526084016200017b565b620001f681620000d4565b50565b805160ff811681146200020b57600080fd5b919050565b80516001600160a01b03811681146200020b57600080fd5b60008060008060008060c087890312156200024257600080fd5b6200024d87620001f9565b95506200025d60208801620001f9565b9450604087015193506060870151600381106200027957600080fd5b9250620002896080880162000210565b91506200029960a0880162000210565b90509295509295509295565b61127380620002b56000396000f3fe6080604052600436106100c25760003560e01c80637492174f1161007f578063c41c28a911610059578063c41c28a9146101f8578063e237a3fc1461020d578063f2fde38b14610222578063fe0ae1651461024257600080fd5b80637492174f146101985780638da5cb5b146101c55780639ea6b4f4146101e357600080fd5b806309b0ca7a146100c75780631a63b100146100ff578063200d2ed214610120578063251d10b01461014e578063715018a61461016357806372dd408414610178575b600080fd5b3480156100d357600080fd5b506000546100e890600160a01b900460ff1681565b60405160ff90911681526020015b60405180910390f35b34801561010b57600080fd5b506000546100e890600160a81b900460ff1681565b34801561012c57600080fd5b50600a5461014190600160a01b900460ff1681565b6040516100f69190610dfe565b61016161015c366004610e26565b610265565b005b34801561016f57600080fd5b506101616102cb565b34801561018457600080fd5b50610161610193366004610ee2565b610301565b3480156101a457600080fd5b506101ad6103d1565b6040516001600160a01b0390911681526020016100f6565b3480156101d157600080fd5b506000546001600160a01b03166101ad565b3480156101ef57600080fd5b506101ad61040e565b34801561020457600080fd5b5061016161044b565b34801561021957600080fd5b506101616104e1565b34801561022e57600080fd5b5061016161023d366004610f46565b61050b565b34801561024e57600080fd5b506102576105a6565b6040516100f6929190610fbc565b600a546001600160a01b031633146102985760405162461bcd60e51b815260040161028f90610fea565b60405180910390fd5b80600260008282546102aa9190611037565b9250508190555080600360008282546102c39190611037565b909155505050565b6000546001600160a01b031633146102f55760405162461bcd60e51b815260040161028f9061104f565b6102ff600061068c565b565b6006546001600160a01b0316331461032b5760405162461bcd60e51b815260040161028f90611084565b600a60009054906101000a90046001600160a01b03166001600160a01b0316632c8f85f46040518163ffffffff1660e01b8152600401600060405180830381600087803b15801561037b57600080fd5b505af115801561038f573d6000803e3d6000fd5b5050505061039c826106dc565b6103a58161071d565b4260018190556003546103b791611037565b6002555050600a805460ff60a01b1916600160a01b179055565b600a546000906001600160a01b031633146103fe5760405162461bcd60e51b815260040161028f90610fea565b506006546001600160a01b031690565b600a546000906001600160a01b0316331461043b5760405162461bcd60e51b815260040161028f90610fea565b506005546001600160a01b031690565b6006546001600160a01b031633146104755760405162461bcd60e51b815260040161028f90611084565b60025442116104c65760405162461bcd60e51b815260206004820152601760248201527f53657373696f6e206973206e6f74206f76657274696d65000000000000000000604482015260640161028f565b600a805460ff60a01b1916600360a01b1790556102ff6107f7565b6000546001600160a01b031633146104c65760405162461bcd60e51b815260040161028f9061104f565b6000546001600160a01b031633146105355760405162461bcd60e51b815260040161028f9061104f565b6001600160a01b03811661059a5760405162461bcd60e51b815260206004820152602660248201527f4f776e61626c653a206e6577206f776e657220697320746865207a65726f206160448201526564647265737360d01b606482015260840161028f565b6105a38161068c565b50565b606080336001600160a01b03166105c56000546001600160a01b031690565b6001600160a01b0316146105eb5760405162461bcd60e51b815260040161028f9061104f565b6001600a54600160a01b900460ff16600481111561060b5761060b610de8565b146106585760405162461bcd60e51b815260206004820152601960248201527f53657373696f6e206973206e6f7420636f6e6669677572656400000000000000604482015260640161028f565b60006106626109db565b9050600061066e610a98565b600a805460ff60a01b1916600160a11b179055919491935090915050565b600080546001600160a01b038381166001600160a01b0319831681178455604051919092169283917f8be0079c531659141344cd1fd0a4f28419497f9722a3daafe3b4186f6b6457e09190a35050565b6006546001600160a01b031633146107065760405162461bcd60e51b815260040161028f90611084565b8051610719906007906020840190610d4f565b5050565b6006546001600160a01b031633146107475760405162461bcd60e51b815260040161028f90611084565b6000600a54600160a01b900460ff16600481111561076757610767610de8565b146107b45760405162461bcd60e51b815260206004820152601b60248201527f53657373696f6e206973206e6f7420696e697469616c6973696e670000000000604482015260640161028f565b6005546000906107ce9033906001600160a01b0316610c54565b600081815260086020908152604090912084519293506107f2929091850190610d4f565b505050565b6003600a54600160a01b900460ff16600481111561081757610817610de8565b146108645760405162461bcd60e51b815260206004820152601960248201527f53657373696f6e20686173206e6f7420656e6465642079657400000000000000604482015260640161028f565b600061086e610ceb565b9050600454600161087f91906110bb565b8111156108c8576006546009546040516001600160a01b039092169181156108fc0291906000818181858888f193505050501580156108c2573d6000803e3d6000fd5b5061095d565b6000600454600954836108db91906110bb565b6108e591906110da565b6006546040519192506001600160a01b03169082156108fc029083906000818181858888f19350505050158015610920573d6000803e3d6000fd5b506005546040516001600160a01b03909116904780156108fc02916000818181858888f1935050505015801561095a573d6000803e3d6000fd5b50505b600a60009054906101000a90046001600160a01b03166001600160a01b0316638a7cadf16040518163ffffffff1660e01b8152600401600060405180830381600087803b1580156109ad57600080fd5b505af11580156109c1573d6000803e3d6000fd5b5050600a805460ff60a01b1916600160a21b179055505050565b6000546060906001600160a01b03163314610a085760405162461bcd60e51b815260040161028f9061104f565b60078054610a15906110fc565b80601f0160208091040260200160405190810160405280929190818152602001828054610a41906110fc565b8015610a8e5780601f10610a6357610100808354040283529160200191610a8e565b820191906000526020600020905b815481529060010190602001808311610a7157829003601f168201915b5050505050905090565b6000546060906001600160a01b03163314610ac55760405162461bcd60e51b815260040161028f9061104f565b6001600a54600160a01b900460ff166004811115610ae557610ae5610de8565b1015610b335760405162461bcd60e51b815260206004820152601d60248201527f53657373696f6e206973207061737420636f6e66696775726174696f6e000000604482015260640161028f565b6004600a54600160a01b900460ff166004811115610b5357610b53610de8565b10610b965760405162461bcd60e51b815260206004820152601360248201527214d95cdcda5bdb881a5cc81c995cdbdb1d9959606a1b604482015260640161028f565b600654600090610bb09033906001600160a01b0316610c54565b600081815260086020526040812080549293509091610bce906110fc565b80601f0160208091040260200160405190810160405280929190818152602001828054610bfa906110fc565b8015610c475780601f10610c1c57610100808354040283529160200191610c47565b820191906000526020600020905b815481529060010190602001808311610c2a57829003601f168201915b5093965050505050505090565b6000816001600160a01b0316836001600160a01b03161015610cb7576040516bffffffffffffffffffffffff19606085811b8216602084015284901b1660348201526048015b604051602081830303815290604052805190602001209050610ce5565b6040516bffffffffffffffffffffffff19606084811b8216602084015285901b166034820152604801610c9a565b92915050565b6000806004546001610cfd9190611037565b610d0890600a61121a565b600154610d159042611226565b610d1f91906110bb565b90506000600a60035483610d3391906110da565b610d3e906005611037565b610d4891906110da565b9392505050565b828054610d5b906110fc565b90600052602060002090601f016020900481019282610d7d5760008555610dc3565b82601f10610d9657805160ff1916838001178555610dc3565b82800160010185558215610dc3579182015b82811115610dc3578251825591602001919060010190610da8565b50610dcf929150610dd3565b5090565b5b80821115610dcf5760008155600101610dd4565b634e487b7160e01b600052602160045260246000fd5b6020810160058310610e2057634e487b7160e01b600052602160045260246000fd5b91905290565b600060208284031215610e3857600080fd5b5035919050565b634e487b7160e01b600052604160045260246000fd5b600082601f830112610e6657600080fd5b813567ffffffffffffffff80821115610e8157610e81610e3f565b604051601f8301601f19908116603f01168101908282118183101715610ea957610ea9610e3f565b81604052838152866020858801011115610ec257600080fd5b836020870160208301376000602085830101528094505050505092915050565b60008060408385031215610ef557600080fd5b823567ffffffffffffffff80821115610f0d57600080fd5b610f1986838701610e55565b93506020850135915080821115610f2f57600080fd5b50610f3c85828601610e55565b9150509250929050565b600060208284031215610f5857600080fd5b81356001600160a01b0381168114610d4857600080fd5b6000815180845260005b81811015610f9557602081850181015186830182015201610f79565b81811115610fa7576000602083870101525b50601f01601f19169290920160200192915050565b604081526000610fcf6040830185610f6f565b8281036020840152610fe18185610f6f565b95945050505050565b60208082526017908201527f596f7520617265206e6f742074686520666163746f7279000000000000000000604082015260600190565b634e487b7160e01b600052601160045260246000fd5b6000821982111561104a5761104a611021565b500190565b6020808252818101527f4f776e61626c653a2063616c6c6572206973206e6f7420746865206f776e6572604082015260600190565b6020808252601d908201527f596f7520617265206e6f742073657373696f6e73205068616573747573000000604082015260600190565b60008160001904831182151516156110d5576110d5611021565b500290565b6000826110f757634e487b7160e01b600052601260045260246000fd5b500490565b600181811c9082168061111057607f821691505b60208210810361113057634e487b7160e01b600052602260045260246000fd5b50919050565b600181815b8085111561117157816000190482111561115757611157611021565b8085161561116457918102915b93841c939080029061113b565b509250929050565b60008261118857506001610ce5565b8161119557506000610ce5565b81600181146111ab57600281146111b5576111d1565b6001915050610ce5565b60ff8411156111c6576111c6611021565b50506001821b610ce5565b5060208310610133831016604e8410600b84101617156111f4575081810a610ce5565b6111fe8383611136565b806000190482111561121257611212611021565b029392505050565b6000610d488383611179565b60008282101561123857611238611021565b50039056fea2646970667358221220b8badf96f98b2809f8b9ffc2c023028f7a505e90ec3a1ebbab574e4c078f33fe64736f6c634300080e0033a26469706673582212208ce4653fb3657e7948de4b35784af4a002c90e8c97fef2d1cc6747939cfc526c64736f6c634300080e0033",
  "bytecodeSha1": "1fcfa019cc4712e89d2bfe5360a102aa448fa949",
  "compiler": {
    "evm_version": "istanbul",
    "optimizer": {
      "enabled": true,
      "runs": 200
    },
    "version": "0.8.14+commit.80d49f37"
  },
  "contractName": "TorpedoFactory",
  "language": "Solidity",
  "natspec": {
    "kind": "dev",
    "methods": {},
    "version": 1
  },
  "opcodes": "PUSH1 0x80 PUSH1 0x40 MSTORE PUSH1 0x4 CALLDATASIZE LT PUSH3 0x11F JUMPI PUSH1 0x0 CALLDATALOAD PUSH1 0xE0 SHR DUP1 PUSH4 0x741BEF1A GT PUSH3 0xA1 JUMPI DUP1 PUSH4 0xA7143CCF GT PUSH3 0x6C JUMPI DUP1 PUSH4 0xA7143CCF EQ PUSH3 0x360 JUMPI DUP1 PUSH4 0xA7663CEE EQ PUSH3 0x385 JUMPI DUP1 PUSH4 0xB0D18D26 EQ PUSH3 0x3AA JUMPI DUP1 PUSH4 0xBBE4FD50 EQ PUSH3 0x3CF JUMPI DUP1 PUSH4 0xC6BC6846 EQ PUSH3 0x3E4 JUMPI PUSH1 0x0 DUP1 REVERT JUMPDEST DUP1 PUSH4 0x741BEF1A EQ PUSH3 0x2DF JUMPI DUP1 PUSH4 0x8A7CADF1 EQ PUSH3 0x301 JUMPI DUP1 PUSH4 0x8DA5CB5B EQ PUSH3 0x319 JUMPI DUP1 PUSH4 0x9A733E84 EQ PUSH3 0x33B JUMPI PUSH1 0x0 DUP1 REVERT JUMPDEST DUP1 PUSH4 0x465E0499 GT PUSH3 0xEE JUMPI DUP1 PUSH4 0x465E0499 EQ PUSH3 0x20B JUMPI DUP1 PUSH4 0x47C4DE76 EQ PUSH3 0x230 JUMPI DUP1 PUSH4 0x4D9FDD3E EQ PUSH3 0x264 JUMPI DUP1 PUSH4 0x711B82F6 EQ PUSH3 0x298 JUMPI DUP1 PUSH4 0x73595502 EQ PUSH3 0x2C8 JUMPI PUSH1 0x0 DUP1 REVERT JUMPDEST DUP1 PUSH4 0x228EFF42 EQ PUSH3 0x124 JUMPI DUP1 PUSH4 0x251D10B0 EQ PUSH3 0x1A6 JUMPI DUP1 PUSH4 0x2C8F85F4 EQ PUSH3 0x1BF JUMPI DUP1 PUSH4 0x2D913140 EQ PUSH3 0x1D7 JUMPI JUMPDEST PUSH1 0x0 DUP1 REVERT JUMPDEST CALLVALUE DUP1 ISZERO PUSH3 0x131 JUMPI PUSH1 0x0 DUP1 REVERT JUMPDEST POP PUSH3 0x189 PUSH3 0x143 CALLDATASIZE PUSH1 0x4 PUSH3 0x178C JUMP JUMPDEST PUSH1 0x6 PUSH1 0x20 MSTORE PUSH1 0x0 SWAP1 DUP2 MSTORE PUSH1 0x40 SWAP1 KECCAK256 DUP1 SLOAD PUSH1 0x1 DUP3 ADD SLOAD PUSH1 0x2 DUP4 ADD SLOAD PUSH1 0x3 SWAP1 SWAP4 ADD SLOAD PUSH1 0x1 PUSH1 0x1 PUSH1 0xA0 SHL SUB DUP4 AND SWAP4 PUSH1 0xFF PUSH1 0x1 PUSH1 0xA0 SHL DUP6 DIV DUP2 AND SWAP5 PUSH1 0x1 PUSH1 0xA8 SHL SWAP1 DIV DUP2 AND SWAP4 SWAP3 AND DUP7 JUMP JUMPDEST PUSH1 0x40 MLOAD PUSH3 0x19D SWAP7 SWAP6 SWAP5 SWAP4 SWAP3 SWAP2 SWAP1 PUSH3 0x17E5 JUMP JUMPDEST PUSH1 0x40 MLOAD DUP1 SWAP2 SUB SWAP1 RETURN JUMPDEST PUSH3 0x1BD PUSH3 0x1B7 CALLDATASIZE PUSH1 0x4 PUSH3 0x182E JUMP JUMPDEST PUSH3 0x411 JUMP JUMPDEST STOP JUMPDEST CALLVALUE DUP1 ISZERO PUSH3 0x1CC JUMPI PUSH1 0x0 DUP1 REVERT JUMPDEST POP PUSH3 0x1BD PUSH3 0x6E6 JUMP JUMPDEST CALLVALUE DUP1 ISZERO PUSH3 0x1E4 JUMPI PUSH1 0x0 DUP1 REVERT JUMPDEST POP PUSH3 0x1FC PUSH3 0x1F6 CALLDATASIZE PUSH1 0x4 PUSH3 0x182E JUMP JUMPDEST PUSH3 0x8B2 JUMP JUMPDEST PUSH1 0x40 MLOAD SWAP1 DUP2 MSTORE PUSH1 0x20 ADD PUSH3 0x19D JUMP JUMPDEST CALLVALUE DUP1 ISZERO PUSH3 0x218 JUMPI PUSH1 0x0 DUP1 REVERT JUMPDEST POP PUSH3 0x189 PUSH3 0x22A CALLDATASIZE PUSH1 0x4 PUSH3 0x182E JUMP JUMPDEST PUSH3 0x911 JUMP JUMPDEST CALLVALUE DUP1 ISZERO PUSH3 0x23D JUMPI PUSH1 0x0 DUP1 REVERT JUMPDEST POP PUSH3 0x248 PUSH3 0x96C JUMP JUMPDEST PUSH1 0x40 DUP1 MLOAD SWAP4 DUP5 MSTORE PUSH1 0x20 DUP5 ADD SWAP3 SWAP1 SWAP3 MSTORE SWAP1 DUP3 ADD MSTORE PUSH1 0x60 ADD PUSH3 0x19D JUMP JUMPDEST CALLVALUE DUP1 ISZERO PUSH3 0x271 JUMPI PUSH1 0x0 DUP1 REVERT JUMPDEST POP PUSH3 0x289 PUSH3 0x283 CALLDATASIZE PUSH1 0x4 PUSH3 0x182E JUMP JUMPDEST PUSH3 0xAA4 JUMP JUMPDEST PUSH1 0x40 MLOAD PUSH3 0x19D SWAP2 SWAP1 PUSH3 0x1848 JUMP JUMPDEST PUSH3 0x2AF PUSH3 0x2A9 CALLDATASIZE PUSH1 0x4 PUSH3 0x18CA JUMP JUMPDEST PUSH3 0xB92 JUMP JUMPDEST PUSH1 0x40 MLOAD PUSH1 0x1 PUSH1 0x1 PUSH1 0xA0 SHL SUB SWAP1 SWAP2 AND DUP2 MSTORE PUSH1 0x20 ADD PUSH3 0x19D JUMP JUMPDEST CALLVALUE DUP1 ISZERO PUSH3 0x2D5 JUMPI PUSH1 0x0 DUP1 REVERT JUMPDEST POP PUSH1 0x1 SLOAD PUSH3 0x1FC JUMP JUMPDEST CALLVALUE DUP1 ISZERO PUSH3 0x2EC JUMPI PUSH1 0x0 DUP1 REVERT JUMPDEST POP PUSH1 0x4 SLOAD PUSH3 0x2AF SWAP1 PUSH1 0x1 PUSH1 0x1 PUSH1 0xA0 SHL SUB AND DUP2 JUMP JUMPDEST CALLVALUE DUP1 ISZERO PUSH3 0x30E JUMPI PUSH1 0x0 DUP1 REVERT JUMPDEST POP PUSH3 0x1BD PUSH3 0xD29 JUMP JUMPDEST CALLVALUE DUP1 ISZERO PUSH3 0x326 JUMPI PUSH1 0x0 DUP1 REVERT JUMPDEST POP PUSH1 0x0 SLOAD PUSH3 0x2AF SWAP1 PUSH1 0x1 PUSH1 0x1 PUSH1 0xA0 SHL SUB AND DUP2 JUMP JUMPDEST CALLVALUE DUP1 ISZERO PUSH3 0x348 JUMPI PUSH1 0x0 DUP1 REVERT JUMPDEST POP PUSH3 0x1FC PUSH3 0x35A CALLDATASIZE PUSH1 0x4 PUSH3 0x18CA JUMP JUMPDEST PUSH3 0xED9 JUMP JUMPDEST CALLVALUE DUP1 ISZERO PUSH3 0x36D JUMPI PUSH1 0x0 DUP1 REVERT JUMPDEST POP PUSH3 0x1FC PUSH3 0x37F CALLDATASIZE PUSH1 0x4 PUSH3 0x182E JUMP JUMPDEST PUSH3 0xF01 JUMP JUMPDEST CALLVALUE DUP1 ISZERO PUSH3 0x392 JUMPI PUSH1 0x0 DUP1 REVERT JUMPDEST POP PUSH3 0x1FC PUSH3 0x3A4 CALLDATASIZE PUSH1 0x4 PUSH3 0x18CA JUMP JUMPDEST PUSH3 0xF3B JUMP JUMPDEST CALLVALUE DUP1 ISZERO PUSH3 0x3B7 JUMPI PUSH1 0x0 DUP1 REVERT JUMPDEST POP PUSH3 0x1BD PUSH3 0x3C9 CALLDATASIZE PUSH1 0x4 PUSH3 0x196B JUMP JUMPDEST PUSH3 0xF8A JUMP JUMPDEST CALLVALUE DUP1 ISZERO PUSH3 0x3DC JUMPI PUSH1 0x0 DUP1 REVERT JUMPDEST POP TIMESTAMP PUSH3 0x1FC JUMP JUMPDEST CALLVALUE DUP1 ISZERO PUSH3 0x3F1 JUMPI PUSH1 0x0 DUP1 REVERT JUMPDEST POP CALLER PUSH1 0x0 SWAP1 DUP2 MSTORE PUSH1 0x5 PUSH1 0x20 MSTORE PUSH1 0x40 SWAP1 KECCAK256 SLOAD PUSH1 0x1 PUSH1 0x1 PUSH1 0xA0 SHL SUB AND PUSH3 0x2AF JUMP JUMPDEST CALLER PUSH1 0x0 SWAP1 DUP2 MSTORE PUSH1 0x5 PUSH1 0x20 SWAP1 DUP2 MSTORE PUSH1 0x40 DUP1 DUP4 KECCAK256 SLOAD DUP2 MLOAD PUSH4 0x7492174F PUSH1 0xE0 SHL DUP2 MSTORE SWAP2 MLOAD PUSH1 0x1 PUSH1 0x1 PUSH1 0xA0 SHL SUB SWAP1 SWAP2 AND SWAP4 DUP5 SWAP4 SWAP1 SWAP3 DUP5 SWAP3 PUSH4 0x7492174F SWAP3 PUSH1 0x4 DUP1 DUP5 ADD SWAP4 SWAP2 SWAP3 SWAP2 DUP3 SWAP1 SUB ADD DUP2 DUP7 GAS STATICCALL ISZERO DUP1 ISZERO PUSH3 0x46D JUMPI RETURNDATASIZE PUSH1 0x0 DUP1 RETURNDATACOPY RETURNDATASIZE PUSH1 0x0 REVERT JUMPDEST POP POP POP POP PUSH1 0x40 MLOAD RETURNDATASIZE PUSH1 0x1F NOT PUSH1 0x1F DUP3 ADD AND DUP3 ADD DUP1 PUSH1 0x40 MSTORE POP DUP2 ADD SWAP1 PUSH3 0x493 SWAP2 SWAP1 PUSH3 0x19CD JUMP JUMPDEST SWAP1 POP DUP2 PUSH1 0x1 PUSH1 0x1 PUSH1 0xA0 SHL SUB AND PUSH4 0x9EA6B4F4 PUSH1 0x40 MLOAD DUP2 PUSH4 0xFFFFFFFF AND PUSH1 0xE0 SHL DUP2 MSTORE PUSH1 0x4 ADD PUSH1 0x20 PUSH1 0x40 MLOAD DUP1 DUP4 SUB DUP2 DUP7 GAS STATICCALL ISZERO DUP1 ISZERO PUSH3 0x4D4 JUMPI RETURNDATASIZE PUSH1 0x0 DUP1 RETURNDATACOPY RETURNDATASIZE PUSH1 0x0 REVERT JUMPDEST POP POP POP POP PUSH1 0x40 MLOAD RETURNDATASIZE PUSH1 0x1F NOT PUSH1 0x1F DUP3 ADD AND DUP3 ADD DUP1 PUSH1 0x40 MSTORE POP DUP2 ADD SWAP1 PUSH3 0x4FA SWAP2 SWAP1 PUSH3 0x19CD JUMP JUMPDEST PUSH1 0x1 PUSH1 0x1 PUSH1 0xA0 SHL SUB AND CALLER PUSH1 0x1 PUSH1 0x1 PUSH1 0xA0 SHL SUB AND EQ PUSH3 0x56C JUMPI PUSH1 0x40 MLOAD PUSH3 0x461BCD PUSH1 0xE5 SHL DUP2 MSTORE PUSH1 0x20 PUSH1 0x4 DUP3 ADD MSTORE PUSH1 0x23 PUSH1 0x24 DUP3 ADD MSTORE PUSH32 0x53656E646572206973206E6F7420636C69656E74206F66207468652073657373 PUSH1 0x44 DUP3 ADD MSTORE PUSH3 0x34B7B7 PUSH1 0xE9 SHL PUSH1 0x64 DUP3 ADD MSTORE PUSH1 0x84 ADD JUMPDEST PUSH1 0x40 MLOAD DUP1 SWAP2 SUB SWAP1 REVERT JUMPDEST PUSH1 0x1 PUSH1 0x1 PUSH1 0xA0 SHL SUB DUP2 AND PUSH1 0x0 SWAP1 DUP2 MSTORE PUSH1 0x6 PUSH1 0x20 MSTORE PUSH1 0x40 SWAP1 KECCAK256 PUSH1 0x1 ADD SLOAD PUSH3 0x594 DUP6 TIMESTAMP PUSH3 0x1A03 JUMP JUMPDEST LT PUSH3 0x5F7 JUMPI PUSH1 0x40 MLOAD PUSH3 0x461BCD PUSH1 0xE5 SHL DUP2 MSTORE PUSH1 0x20 PUSH1 0x4 DUP3 ADD MSTORE PUSH1 0x2B PUSH1 0x24 DUP3 ADD MSTORE PUSH32 0x5468697320706861657374757320776F6E2774206265206F6E6C696E6520666F PUSH1 0x44 DUP3 ADD MSTORE PUSH11 0x722074686174206C6F6E67 PUSH1 0xA8 SHL PUSH1 0x64 DUP3 ADD MSTORE PUSH1 0x84 ADD PUSH3 0x563 JUMP JUMPDEST PUSH1 0x1 SLOAD PUSH1 0x1 PUSH1 0x1 PUSH1 0xA0 SHL SUB DUP3 AND PUSH1 0x0 SWAP1 DUP2 MSTORE PUSH1 0x6 PUSH1 0x20 MSTORE PUSH1 0x40 DUP2 KECCAK256 PUSH1 0x2 ADD SLOAD SWAP1 SWAP2 SWAP1 PUSH3 0x62B SWAP1 PUSH3 0x1F6 SWAP1 DUP9 SWAP1 PUSH3 0x1A1E JUMP JUMPDEST PUSH3 0x637 SWAP2 SWAP1 PUSH3 0x1A56 JUMP JUMPDEST SWAP1 POP DUP1 CALLVALUE GT PUSH3 0x681 JUMPI PUSH1 0x40 MLOAD PUSH3 0x461BCD PUSH1 0xE5 SHL DUP2 MSTORE PUSH1 0x20 PUSH1 0x4 DUP3 ADD MSTORE PUSH1 0x14 PUSH1 0x24 DUP3 ADD MSTORE PUSH20 0x125B9CDD59999A58DA595B9D081C185E5B595B9D PUSH1 0x62 SHL PUSH1 0x44 DUP3 ADD MSTORE PUSH1 0x64 ADD PUSH3 0x563 JUMP JUMPDEST PUSH1 0x40 MLOAD PUSH4 0x251D10B PUSH1 0xE4 SHL DUP2 MSTORE PUSH1 0x4 DUP2 ADD DUP7 SWAP1 MSTORE PUSH1 0x1 PUSH1 0x1 PUSH1 0xA0 SHL SUB DUP5 AND SWAP1 PUSH4 0x251D10B0 SWAP1 CALLVALUE SWAP1 PUSH1 0x24 ADD PUSH1 0x0 PUSH1 0x40 MLOAD DUP1 DUP4 SUB DUP2 DUP6 DUP9 DUP1 EXTCODESIZE ISZERO DUP1 ISZERO PUSH3 0x6C5 JUMPI PUSH1 0x0 DUP1 REVERT JUMPDEST POP GAS CALL ISZERO DUP1 ISZERO PUSH3 0x6DA JUMPI RETURNDATASIZE PUSH1 0x0 DUP1 RETURNDATACOPY RETURNDATASIZE PUSH1 0x0 REVERT JUMPDEST POP POP POP POP POP POP POP POP POP POP JUMP JUMPDEST PUSH1 0x0 CALLER SWAP1 POP PUSH1 0x0 PUSH1 0x6 PUSH1 0x0 DUP4 PUSH1 0x1 PUSH1 0x1 PUSH1 0xA0 SHL SUB AND PUSH4 0x7492174F PUSH1 0x40 MLOAD DUP2 PUSH4 0xFFFFFFFF AND PUSH1 0xE0 SHL DUP2 MSTORE PUSH1 0x4 ADD PUSH1 0x20 PUSH1 0x40 MLOAD DUP1 DUP4 SUB DUP2 DUP7 GAS STATICCALL ISZERO DUP1 ISZERO PUSH3 0x730 JUMPI RETURNDATASIZE PUSH1 0x0 DUP1 RETURNDATACOPY RETURNDATASIZE PUSH1 0x0 REVERT JUMPDEST POP POP POP POP PUSH1 0x40 MLOAD RETURNDATASIZE PUSH1 0x1F NOT PUSH1 0x1F DUP3 ADD AND DUP3 ADD DUP1 PUSH1 0x40 MSTORE POP DUP2 ADD SWAP1 PUSH3 0x756 SWAP2 SWAP1 PUSH3 0x19CD JUMP JUMPDEST PUSH1 0x1 PUSH1 0x1 PUSH1 0xA0 SHL SUB AND PUSH1 0x1 PUSH1 0x1 PUSH1 0xA0 SHL SUB AND DUP2 MSTORE PUSH1 0x20 ADD SWAP1 DUP2 MSTORE PUSH1 0x20 ADD PUSH1 0x0 KECCAK256 SWAP1 POP DUP2 PUSH1 0x1 PUSH1 0x1 PUSH1 0xA0 SHL SUB AND PUSH4 0x9B0CA7A PUSH1 0x40 MLOAD DUP2 PUSH4 0xFFFFFFFF AND PUSH1 0xE0 SHL DUP2 MSTORE PUSH1 0x4 ADD PUSH1 0x20 PUSH1 0x40 MLOAD DUP1 DUP4 SUB DUP2 DUP7 GAS STATICCALL ISZERO DUP1 ISZERO PUSH3 0x7B7 JUMPI RETURNDATASIZE PUSH1 0x0 DUP1 RETURNDATACOPY RETURNDATASIZE PUSH1 0x0 REVERT JUMPDEST POP POP POP POP PUSH1 0x40 MLOAD RETURNDATASIZE PUSH1 0x1F NOT PUSH1 0x1F DUP3 ADD AND DUP3 ADD DUP1 PUSH1 0x40 MSTORE POP DUP2 ADD SWAP1 PUSH3 0x7DD SWAP2 SWAP1 PUSH3 0x1A6D JUMP JUMPDEST DUP2 SLOAD DUP3 SWAP1 PUSH1 0x14 SWAP1 PUSH3 0x7FB SWAP1 DUP5 SWAP1 PUSH1 0x1 PUSH1 0xA0 SHL SWAP1 DIV PUSH1 0xFF AND PUSH3 0x1A8D JUMP JUMPDEST SWAP3 POP PUSH2 0x100 EXP DUP2 SLOAD DUP2 PUSH1 0xFF MUL NOT AND SWAP1 DUP4 PUSH1 0xFF AND MUL OR SWAP1 SSTORE POP DUP2 PUSH1 0x1 PUSH1 0x1 PUSH1 0xA0 SHL SUB AND PUSH4 0x1A63B100 PUSH1 0x40 MLOAD DUP2 PUSH4 0xFFFFFFFF AND PUSH1 0xE0 SHL DUP2 MSTORE PUSH1 0x4 ADD PUSH1 0x20 PUSH1 0x40 MLOAD DUP1 DUP4 SUB DUP2 DUP7 GAS STATICCALL ISZERO DUP1 ISZERO PUSH3 0x852 JUMPI RETURNDATASIZE PUSH1 0x0 DUP1 RETURNDATACOPY RETURNDATASIZE PUSH1 0x0 REVERT JUMPDEST POP POP POP POP PUSH1 0x40 MLOAD RETURNDATASIZE PUSH1 0x1F NOT PUSH1 0x1F DUP3 ADD AND DUP3 ADD DUP1 PUSH1 0x40 MSTORE POP DUP2 ADD SWAP1 PUSH3 0x878 SWAP2 SWAP1 PUSH3 0x1A6D JUMP JUMPDEST DUP2 SLOAD DUP3 SWAP1 PUSH1 0x15 SWAP1 PUSH3 0x896 SWAP1 DUP5 SWAP1 PUSH1 0x1 PUSH1 0xA8 SHL SWAP1 DIV PUSH1 0xFF AND PUSH3 0x1A8D JUMP JUMPDEST SWAP3 POP PUSH2 0x100 EXP DUP2 SLOAD DUP2 PUSH1 0xFF MUL NOT AND SWAP1 DUP4 PUSH1 0xFF AND MUL OR SWAP1 SSTORE POP POP POP JUMP JUMPDEST PUSH1 0x0 DUP1 PUSH3 0x8C9 DUP4 PUSH8 0xDE0B6B3A7640000 PUSH3 0x1A1E JUMP JUMPDEST SWAP1 POP PUSH1 0x0 PUSH3 0x8D7 PUSH3 0x12C9 JUMP JUMPDEST SWAP1 POP PUSH8 0xDE0B6B3A7640000 DUP2 PUSH3 0x8EF DUP3 DUP6 PUSH3 0x1A1E JUMP JUMPDEST PUSH3 0x8FB SWAP2 SWAP1 PUSH3 0x1A56 JUMP JUMPDEST PUSH3 0x908 SWAP1 PUSH1 0x1 PUSH3 0x1A03 JUMP JUMPDEST SWAP6 SWAP5 POP POP POP POP POP JUMP JUMPDEST PUSH1 0x7 DUP2 DUP2 SLOAD DUP2 LT PUSH3 0x922 JUMPI PUSH1 0x0 DUP1 REVERT JUMPDEST PUSH1 0x0 SWAP2 DUP3 MSTORE PUSH1 0x20 SWAP1 SWAP2 KECCAK256 PUSH1 0x4 SWAP1 SWAP2 MUL ADD DUP1 SLOAD PUSH1 0x1 DUP3 ADD SLOAD PUSH1 0x2 DUP4 ADD SLOAD PUSH1 0x3 SWAP1 SWAP4 ADD SLOAD PUSH1 0x1 PUSH1 0x1 PUSH1 0xA0 SHL SUB DUP4 AND SWAP5 POP PUSH1 0xFF PUSH1 0x1 PUSH1 0xA0 SHL DUP5 DIV DUP2 AND SWAP5 PUSH1 0x1 PUSH1 0xA8 SHL SWAP1 SWAP5 DIV DUP2 AND SWAP4 SWAP2 AND DUP7 JUMP JUMPDEST PUSH1 0x0 DUP1 DUP1 DUP1 DUP1 DUP1 DUP1 JUMPDEST PUSH1 0x7 SLOAD DUP2 LT ISZERO PUSH3 0xA97 JUMPI PUSH1 0x0 PUSH1 0x7 DUP3 DUP2 SLOAD DUP2 LT PUSH3 0x998 JUMPI PUSH3 0x998 PUSH3 0x1AB3 JUMP JUMPDEST PUSH1 0x0 SWAP2 DUP3 MSTORE PUSH1 0x20 SWAP2 DUP3 SWAP1 KECCAK256 PUSH1 0x40 DUP1 MLOAD PUSH1 0xC0 DUP2 ADD DUP3 MSTORE PUSH1 0x4 SWAP1 SWAP4 MUL SWAP1 SWAP2 ADD DUP1 SLOAD PUSH1 0x1 PUSH1 0x1 PUSH1 0xA0 SHL SUB DUP2 AND DUP5 MSTORE PUSH1 0xFF PUSH1 0x1 PUSH1 0xA0 SHL DUP3 DIV DUP2 AND SWAP6 DUP6 ADD SWAP6 SWAP1 SWAP6 MSTORE PUSH1 0x1 PUSH1 0xA8 SHL SWAP1 DIV DUP5 AND SWAP2 DUP4 ADD SWAP2 SWAP1 SWAP2 MSTORE PUSH1 0x1 DUP2 ADD SLOAD PUSH1 0x60 DUP4 ADD MSTORE PUSH1 0x2 DUP1 DUP3 ADD SLOAD PUSH1 0x80 DUP5 ADD MSTORE PUSH1 0x3 DUP3 ADD SLOAD SWAP3 SWAP4 SWAP2 SWAP3 PUSH1 0xA0 DUP6 ADD SWAP3 AND SWAP1 DUP2 GT ISZERO PUSH3 0xA1C JUMPI PUSH3 0xA1C PUSH3 0x17AC JUMP JUMPDEST PUSH1 0x2 DUP2 GT ISZERO PUSH3 0xA30 JUMPI PUSH3 0xA30 PUSH3 0x17AC JUMP JUMPDEST DUP2 MSTORE POP POP SWAP1 POP DUP5 DUP2 PUSH1 0x20 ADD MLOAD PUSH1 0xFF AND GT ISZERO PUSH3 0xA51 JUMPI DUP1 PUSH1 0x20 ADD MLOAD PUSH1 0xFF AND SWAP5 POP JUMPDEST DUP4 DUP2 PUSH1 0x40 ADD MLOAD PUSH1 0xFF AND GT ISZERO PUSH3 0xA6C JUMPI DUP1 PUSH1 0x40 ADD MLOAD PUSH1 0xFF AND SWAP4 POP JUMPDEST DUP3 DUP2 PUSH1 0x60 ADD MLOAD GT ISZERO PUSH3 0xA81 JUMPI DUP1 PUSH1 0x60 ADD MLOAD SWAP3 POP JUMPDEST POP DUP1 PUSH3 0xA8E DUP2 PUSH3 0x1AC9 JUMP JUMPDEST SWAP2 POP POP PUSH3 0x975 JUMP JUMPDEST POP SWAP2 SWAP6 SWAP1 SWAP5 POP SWAP1 SWAP3 POP SWAP1 POP JUMP JUMPDEST PUSH3 0xADB PUSH1 0x40 DUP1 MLOAD PUSH1 0xC0 DUP2 ADD DUP3 MSTORE PUSH1 0x0 DUP1 DUP3 MSTORE PUSH1 0x20 DUP3 ADD DUP2 SWAP1 MSTORE SWAP2 DUP2 ADD DUP3 SWAP1 MSTORE PUSH1 0x60 DUP2 ADD DUP3 SWAP1 MSTORE PUSH1 0x80 DUP2 ADD DUP3 SWAP1 MSTORE SWAP1 PUSH1 0xA0 DUP3 ADD MSTORE SWAP1 JUMP JUMPDEST PUSH1 0x7 DUP3 DUP2 SLOAD DUP2 LT PUSH3 0xAF1 JUMPI PUSH3 0xAF1 PUSH3 0x1AB3 JUMP JUMPDEST PUSH1 0x0 SWAP2 DUP3 MSTORE PUSH1 0x20 SWAP2 DUP3 SWAP1 KECCAK256 PUSH1 0x40 DUP1 MLOAD PUSH1 0xC0 DUP2 ADD DUP3 MSTORE PUSH1 0x4 SWAP1 SWAP4 MUL SWAP1 SWAP2 ADD DUP1 SLOAD PUSH1 0x1 PUSH1 0x1 PUSH1 0xA0 SHL SUB DUP2 AND DUP5 MSTORE PUSH1 0xFF PUSH1 0x1 PUSH1 0xA0 SHL DUP3 DIV DUP2 AND SWAP6 DUP6 ADD SWAP6 SWAP1 SWAP6 MSTORE PUSH1 0x1 PUSH1 0xA8 SHL SWAP1 DIV DUP5 AND SWAP2 DUP4 ADD SWAP2 SWAP1 SWAP2 MSTORE PUSH1 0x1 DUP2 ADD SLOAD PUSH1 0x60 DUP4 ADD MSTORE PUSH1 0x2 DUP1 DUP3 ADD SLOAD PUSH1 0x80 DUP5 ADD MSTORE PUSH1 0x3 DUP3 ADD SLOAD SWAP3 SWAP4 SWAP2 SWAP3 PUSH1 0xA0 DUP6 ADD SWAP3 AND SWAP1 DUP2 GT ISZERO PUSH3 0xB75 JUMPI PUSH3 0xB75 PUSH3 0x17AC JUMP JUMPDEST PUSH1 0x2 DUP2 GT ISZERO PUSH3 0xB89 JUMPI PUSH3 0xB89 PUSH3 0x17AC JUMP JUMPDEST SWAP1 MSTORE POP SWAP3 SWAP2 POP POP JUMP JUMPDEST PUSH1 0x0 PUSH3 0xB9F DUP3 PUSH3 0xED9 JUMP JUMPDEST CALLVALUE LT ISZERO PUSH3 0xBE7 JUMPI PUSH1 0x40 MLOAD PUSH3 0x461BCD PUSH1 0xE5 SHL DUP2 MSTORE PUSH1 0x20 PUSH1 0x4 DUP3 ADD MSTORE PUSH1 0x14 PUSH1 0x24 DUP3 ADD MSTORE PUSH20 0x1A5B9CDD59999A58DA595B9D081C185E5B595B9D PUSH1 0x62 SHL PUSH1 0x44 DUP3 ADD MSTORE PUSH1 0x64 ADD PUSH3 0x563 JUMP JUMPDEST PUSH3 0xBF2 DUP3 PUSH3 0x1358 JUMP JUMPDEST DUP1 SLOAD PUSH3 0xC02 SWAP2 PUSH1 0x3 SWAP2 PUSH3 0x16BB JUMP JUMPDEST POP PUSH1 0x3 SLOAD PUSH1 0x40 DUP1 MLOAD TIMESTAMP PUSH1 0x20 DUP1 DUP4 ADD SWAP2 SWAP1 SWAP2 MSTORE DIFFICULTY DUP3 DUP5 ADD MSTORE DUP3 MLOAD DUP1 DUP4 SUB DUP5 ADD DUP2 MSTORE PUSH1 0x60 SWAP1 SWAP3 ADD SWAP1 SWAP3 MSTORE DUP1 MLOAD SWAP2 ADD KECCAK256 PUSH1 0x0 SWAP2 PUSH3 0xC3D SWAP2 PUSH3 0x1AE5 JUMP JUMPDEST SWAP1 POP PUSH1 0x0 PUSH1 0x7 DUP3 DUP2 SLOAD DUP2 LT PUSH3 0xC57 JUMPI PUSH3 0xC57 PUSH3 0x1AB3 JUMP JUMPDEST SWAP1 PUSH1 0x0 MSTORE PUSH1 0x20 PUSH1 0x0 KECCAK256 SWAP1 PUSH1 0x4 MUL ADD PUSH1 0x0 ADD PUSH1 0x0 SWAP1 SLOAD SWAP1 PUSH2 0x100 EXP SWAP1 DIV PUSH1 0x1 PUSH1 0x1 PUSH1 0xA0 SHL SUB AND SWAP1 POP PUSH1 0x0 CALLVALUE DUP6 PUSH1 0x0 ADD MLOAD DUP7 PUSH1 0x20 ADD MLOAD DUP8 PUSH1 0x40 ADD MLOAD DUP9 PUSH1 0x60 ADD MLOAD CALLER DUP8 PUSH1 0x40 MLOAD PUSH3 0xCA5 SWAP1 PUSH3 0x1710 JUMP JUMPDEST PUSH3 0xCB6 SWAP7 SWAP6 SWAP5 SWAP4 SWAP3 SWAP2 SWAP1 PUSH3 0x1AFC JUMP JUMPDEST PUSH1 0x40 MLOAD DUP1 SWAP2 SUB SWAP1 DUP3 CREATE SWAP1 POP DUP1 ISZERO DUP1 ISZERO PUSH3 0xCD4 JUMPI RETURNDATASIZE PUSH1 0x0 DUP1 RETURNDATACOPY RETURNDATASIZE PUSH1 0x0 REVERT JUMPDEST POP CALLER PUSH1 0x0 SWAP1 DUP2 MSTORE PUSH1 0x5 PUSH1 0x20 SWAP1 DUP2 MSTORE PUSH1 0x40 DUP1 DUP4 KECCAK256 DUP1 SLOAD PUSH1 0x1 PUSH1 0x1 PUSH1 0xA0 SHL SUB NOT AND PUSH1 0x1 PUSH1 0x1 PUSH1 0xA0 SHL SUB DUP7 AND OR SWAP1 SSTORE DUP1 MLOAD SWAP3 DUP4 MSTORE SWAP1 DUP3 ADD SWAP1 DUP2 SWAP1 MSTORE SWAP1 MLOAD SWAP2 SWAP3 POP PUSH3 0xD20 SWAP2 PUSH1 0x3 SWAP2 SWAP1 PUSH3 0x171E JUMP JUMPDEST POP SWAP5 SWAP4 POP POP POP POP JUMP JUMPDEST PUSH1 0x0 CALLER SWAP1 POP PUSH1 0x0 PUSH1 0x6 PUSH1 0x0 DUP4 PUSH1 0x1 PUSH1 0x1 PUSH1 0xA0 SHL SUB AND PUSH4 0x7492174F PUSH1 0x40 MLOAD DUP2 PUSH4 0xFFFFFFFF AND PUSH1 0xE0 SHL DUP2 MSTORE PUSH1 0x4 ADD PUSH1 0x20 PUSH1 0x40 MLOAD DUP1 DUP4 SUB DUP2 DUP7 GAS STATICCALL ISZERO DUP1 ISZERO PUSH3 0xD73 JUMPI RETURNDATASIZE PUSH1 0x0 DUP1 RETURNDATACOPY RETURNDATASIZE PUSH1 0x0 REVERT JUMPDEST POP POP POP POP PUSH1 0x40 MLOAD RETURNDATASIZE PUSH1 0x1F NOT PUSH1 0x1F DUP3 ADD AND DUP3 ADD DUP1 PUSH1 0x40 MSTORE POP DUP2 ADD SWAP1 PUSH3 0xD99 SWAP2 SWAP1 PUSH3 0x19CD JUMP JUMPDEST PUSH1 0x1 PUSH1 0x1 PUSH1 0xA0 SHL SUB AND PUSH1 0x1 PUSH1 0x1 PUSH1 0xA0 SHL SUB AND DUP2 MSTORE PUSH1 0x20 ADD SWAP1 DUP2 MSTORE PUSH1 0x20 ADD PUSH1 0x0 KECCAK256 SWAP1 POP DUP2 PUSH1 0x1 PUSH1 0x1 PUSH1 0xA0 SHL SUB AND PUSH4 0x9B0CA7A PUSH1 0x40 MLOAD DUP2 PUSH4 0xFFFFFFFF AND PUSH1 0xE0 SHL DUP2 MSTORE PUSH1 0x4 ADD PUSH1 0x20 PUSH1 0x40 MLOAD DUP1 DUP4 SUB DUP2 DUP7 GAS STATICCALL ISZERO DUP1 ISZERO PUSH3 0xDFA JUMPI RETURNDATASIZE PUSH1 0x0 DUP1 RETURNDATACOPY RETURNDATASIZE PUSH1 0x0 REVERT JUMPDEST POP POP POP POP PUSH1 0x40 MLOAD RETURNDATASIZE PUSH1 0x1F NOT PUSH1 0x1F DUP3 ADD AND DUP3 ADD DUP1 PUSH1 0x40 MSTORE POP DUP2 ADD SWAP1 PUSH3 0xE20 SWAP2 SWAP1 PUSH3 0x1A6D JUMP JUMPDEST DUP2 SLOAD DUP3 SWAP1 PUSH1 0x14 SWAP1 PUSH3 0xE3E SWAP1 DUP5 SWAP1 PUSH1 0x1 PUSH1 0xA0 SHL SWAP1 DIV PUSH1 0xFF AND PUSH3 0x1B4C JUMP JUMPDEST SWAP3 POP PUSH2 0x100 EXP DUP2 SLOAD DUP2 PUSH1 0xFF MUL NOT AND SWAP1 DUP4 PUSH1 0xFF AND MUL OR SWAP1 SSTORE POP DUP2 PUSH1 0x1 PUSH1 0x1 PUSH1 0xA0 SHL SUB AND PUSH4 0x1A63B100 PUSH1 0x40 MLOAD DUP2 PUSH4 0xFFFFFFFF AND PUSH1 0xE0 SHL DUP2 MSTORE PUSH1 0x4 ADD PUSH1 0x20 PUSH1 0x40 MLOAD DUP1 DUP4 SUB DUP2 DUP7 GAS STATICCALL ISZERO DUP1 ISZERO PUSH3 0xE95 JUMPI RETURNDATASIZE PUSH1 0x0 DUP1 RETURNDATACOPY RETURNDATASIZE PUSH1 0x0 REVERT JUMPDEST POP POP POP POP PUSH1 0x40 MLOAD RETURNDATASIZE PUSH1 0x1F NOT PUSH1 0x1F DUP3 ADD AND DUP3 ADD DUP1 PUSH1 0x40 MSTORE POP DUP2 ADD SWAP1 PUSH3 0xEBB SWAP2 SWAP1 PUSH3 0x1A6D JUMP JUMPDEST DUP2 SLOAD DUP3 SWAP1 PUSH1 0x15 SWAP1 PUSH3 0x896 SWAP1 DUP5 SWAP1 PUSH1 0x1 PUSH1 0xA8 SHL SWAP1 DIV PUSH1 0xFF AND PUSH3 0x1B4C JUMP JUMPDEST PUSH1 0x0 DUP1 PUSH1 0x1 SLOAD PUSH3 0xEEE PUSH3 0x1F6 DUP6 PUSH3 0xF3B JUMP JUMPDEST PUSH3 0xEFA SWAP2 SWAP1 PUSH3 0x1A56 JUMP JUMPDEST SWAP4 SWAP3 POP POP POP JUMP JUMPDEST PUSH1 0x0 DUP1 PUSH3 0xF0E PUSH3 0x12C9 JUMP JUMPDEST SWAP1 POP PUSH1 0x0 PUSH8 0xDE0B6B3A7640000 PUSH3 0xF27 DUP6 DUP5 PUSH3 0x1A1E JUMP JUMPDEST PUSH3 0xF33 SWAP2 SWAP1 PUSH3 0x1A56 JUMP JUMPDEST SWAP5 SWAP4 POP POP POP POP JUMP JUMPDEST PUSH1 0x0 DUP1 PUSH3 0xF49 DUP4 PUSH3 0x1548 JUMP JUMPDEST SWAP1 POP PUSH1 0x0 DUP4 PUSH1 0x40 ADD MLOAD PUSH2 0xFFFF AND PUSH1 0x7 DUP4 DUP2 SLOAD DUP2 LT PUSH3 0xF6C JUMPI PUSH3 0xF6C PUSH3 0x1AB3 JUMP JUMPDEST SWAP1 PUSH1 0x0 MSTORE PUSH1 0x20 PUSH1 0x0 KECCAK256 SWAP1 PUSH1 0x4 MUL ADD PUSH1 0x2 ADD SLOAD PUSH3 0xF33 SWAP2 SWAP1 PUSH3 0x1A1E JUMP JUMPDEST PUSH1 0x2 DUP6 PUSH1 0xFF AND LT ISZERO PUSH3 0xFE0 JUMPI PUSH1 0x40 MLOAD PUSH3 0x461BCD PUSH1 0xE5 SHL DUP2 MSTORE PUSH1 0x20 PUSH1 0x4 DUP3 ADD MSTORE PUSH1 0x1E PUSH1 0x24 DUP3 ADD MSTORE PUSH32 0x4D7573742068617665206174206C6561737420322043505520636F7265730000 PUSH1 0x44 DUP3 ADD MSTORE PUSH1 0x64 ADD PUSH3 0x563 JUMP JUMPDEST PUSH3 0xFEE TIMESTAMP PUSH2 0xE100 PUSH3 0x1A03 JUMP JUMPDEST DUP4 GT PUSH3 0x1053 JUMPI PUSH1 0x40 MLOAD PUSH3 0x461BCD PUSH1 0xE5 SHL DUP2 MSTORE PUSH1 0x20 PUSH1 0x4 DUP3 ADD MSTORE PUSH1 0x2C PUSH1 0x24 DUP3 ADD MSTORE PUSH32 0x5068616573747573206D757374206265206F6E6C696E6520666F72206174206C PUSH1 0x44 DUP3 ADD MSTORE PUSH12 0x65617374203420686F757273 PUSH1 0xA0 SHL PUSH1 0x64 DUP3 ADD MSTORE PUSH1 0x84 ADD PUSH3 0x563 JUMP JUMPDEST PUSH1 0xFF DUP5 AND ISZERO PUSH3 0x10CF JUMPI PUSH1 0x0 DUP2 PUSH1 0x2 DUP2 GT ISZERO PUSH3 0x1074 JUMPI PUSH3 0x1074 PUSH3 0x17AC JUMP JUMPDEST SUB PUSH3 0x10CF JUMPI PUSH1 0x40 MLOAD PUSH3 0x461BCD PUSH1 0xE5 SHL DUP2 MSTORE PUSH1 0x20 PUSH1 0x4 DUP3 ADD MSTORE PUSH1 0x23 PUSH1 0x24 DUP3 ADD MSTORE PUSH32 0x596F7520686176652061204750552E2053706563696679207479706520706C65 PUSH1 0x44 DUP3 ADD MSTORE PUSH3 0x617365 PUSH1 0xE8 SHL PUSH1 0x64 DUP3 ADD MSTORE PUSH1 0x84 ADD PUSH3 0x563 JUMP JUMPDEST PUSH1 0x7 PUSH1 0x40 MLOAD DUP1 PUSH1 0xC0 ADD PUSH1 0x40 MSTORE DUP1 CALLER PUSH1 0x1 PUSH1 0x1 PUSH1 0xA0 SHL SUB AND DUP2 MSTORE PUSH1 0x20 ADD DUP8 PUSH1 0xFF AND DUP2 MSTORE PUSH1 0x20 ADD DUP7 PUSH1 0xFF AND DUP2 MSTORE PUSH1 0x20 ADD DUP6 DUP2 MSTORE PUSH1 0x20 ADD DUP5 DUP2 MSTORE PUSH1 0x20 ADD DUP4 PUSH1 0x2 DUP2 GT ISZERO PUSH3 0x111E JUMPI PUSH3 0x111E PUSH3 0x17AC JUMP JUMPDEST SWAP1 MSTORE DUP2 SLOAD PUSH1 0x1 DUP1 DUP3 ADD DUP5 SSTORE PUSH1 0x0 SWAP4 DUP5 MSTORE PUSH1 0x20 SWAP4 DUP5 SWAP1 KECCAK256 DUP4 MLOAD PUSH1 0x4 SWAP1 SWAP4 MUL ADD DUP1 SLOAD SWAP5 DUP5 ADD MLOAD PUSH1 0x40 DUP6 ADD MLOAD PUSH1 0x1 PUSH1 0x1 PUSH1 0xA0 SHL SUB SWAP1 SWAP5 AND PUSH1 0x1 PUSH1 0x1 PUSH1 0xA8 SHL SUB NOT SWAP1 SWAP7 AND SWAP6 SWAP1 SWAP6 OR PUSH1 0x1 PUSH1 0xA0 SHL PUSH1 0xFF SWAP7 DUP8 AND MUL OR PUSH1 0xFF PUSH1 0xA8 SHL NOT AND PUSH1 0x1 PUSH1 0xA8 SHL SWAP6 SWAP1 SWAP4 AND SWAP5 SWAP1 SWAP5 MUL SWAP2 SWAP1 SWAP2 OR DUP4 SSTORE PUSH1 0x60 DUP3 ADD MLOAD DUP4 DUP3 ADD SSTORE PUSH1 0x80 DUP3 ADD MLOAD PUSH1 0x2 DUP1 DUP6 ADD SWAP2 SWAP1 SWAP2 SSTORE PUSH1 0xA0 DUP4 ADD MLOAD PUSH1 0x3 DUP6 ADD DUP1 SLOAD SWAP5 SWAP6 SWAP5 SWAP2 SWAP4 SWAP1 SWAP3 PUSH1 0xFF NOT SWAP1 SWAP3 AND SWAP2 DUP5 SWAP1 DUP2 GT ISZERO PUSH3 0x11CC JUMPI PUSH3 0x11CC PUSH3 0x17AC JUMP JUMPDEST MUL OR SWAP1 SSTORE POP POP PUSH1 0x7 DUP1 SLOAD SWAP1 SWAP2 POP PUSH3 0x11E7 SWAP1 PUSH1 0x1 SWAP1 PUSH3 0x1B74 JUMP JUMPDEST DUP2 SLOAD DUP2 LT PUSH3 0x11FA JUMPI PUSH3 0x11FA PUSH3 0x1AB3 JUMP JUMPDEST PUSH1 0x0 SWAP2 DUP3 MSTORE PUSH1 0x20 DUP1 DUP4 KECCAK256 CALLER DUP5 MSTORE PUSH1 0x6 SWAP1 SWAP2 MSTORE PUSH1 0x40 SWAP1 SWAP3 KECCAK256 PUSH1 0x4 SWAP1 SWAP2 MUL SWAP1 SWAP2 ADD DUP1 SLOAD DUP3 SLOAD PUSH1 0x1 PUSH1 0x1 PUSH1 0xA0 SHL SUB NOT DUP2 AND PUSH1 0x1 PUSH1 0x1 PUSH1 0xA0 SHL SUB SWAP3 SWAP1 SWAP3 AND SWAP2 DUP3 OR DUP5 SSTORE DUP3 SLOAD PUSH1 0xFF PUSH1 0x1 PUSH1 0xA0 SHL SWAP2 DUP3 SWAP1 DIV DUP2 AND SWAP1 SWAP2 MUL PUSH1 0x1 PUSH1 0x1 PUSH1 0xA8 SHL SUB NOT SWAP1 SWAP3 AND SWAP1 SWAP3 OR OR DUP1 DUP5 SSTORE DUP3 SLOAD PUSH1 0x1 PUSH1 0xA8 SHL SWAP1 DUP2 SWAP1 DIV DUP4 AND MUL PUSH1 0xFF PUSH1 0xA8 SHL NOT SWAP1 SWAP2 AND OR DUP4 SSTORE PUSH1 0x1 DUP1 DUP4 ADD SLOAD DUP2 DUP6 ADD SSTORE PUSH1 0x2 DUP1 DUP5 ADD SLOAD DUP2 DUP7 ADD SSTORE PUSH1 0x3 DUP1 DUP6 ADD SLOAD SWAP1 DUP7 ADD DUP1 SLOAD SWAP6 SWAP7 SWAP6 SWAP2 SWAP1 SWAP5 AND SWAP4 SWAP3 PUSH1 0xFF NOT SWAP1 SWAP2 AND SWAP2 DUP5 SWAP1 DUP2 GT ISZERO PUSH3 0x12BB JUMPI PUSH3 0x12BB PUSH3 0x17AC JUMP JUMPDEST MUL OR SWAP1 SSTORE POP POP POP POP POP POP POP POP JUMP JUMPDEST PUSH1 0x4 DUP1 SLOAD PUSH1 0x40 DUP1 MLOAD PUSH4 0x3FABE5A3 PUSH1 0xE2 SHL DUP2 MSTORE SWAP1 MLOAD PUSH1 0x0 SWAP4 DUP5 SWAP4 PUSH1 0x1 PUSH1 0x1 PUSH1 0xA0 SHL SUB AND SWAP3 PUSH4 0xFEAF968C SWAP3 DUP2 DUP4 ADD SWAP3 PUSH1 0xA0 SWAP3 DUP3 SWAP1 SUB ADD DUP2 DUP7 GAS STATICCALL ISZERO DUP1 ISZERO PUSH3 0x1313 JUMPI RETURNDATASIZE PUSH1 0x0 DUP1 RETURNDATACOPY RETURNDATASIZE PUSH1 0x0 REVERT JUMPDEST POP POP POP POP PUSH1 0x40 MLOAD RETURNDATASIZE PUSH1 0x1F NOT PUSH1 0x1F DUP3 ADD AND DUP3 ADD DUP1 PUSH1 0x40 MSTORE POP DUP2 ADD SWAP1 PUSH3 0x1339 SWAP2 SWAP1 PUSH3 0x1BA9 JUMP JUMPDEST POP POP POP SWAP2 POP POP DUP1 PUSH5 0x2540BE400 PUSH3 0x1352 SWAP2 SWAP1 PUSH3 0x1BF2 JUMP JUMPDEST SWAP2 POP POP SWAP1 JUMP JUMPDEST PUSH1 0x0 DUP1 PUSH3 0x1366 DUP4 PUSH3 0x1548 JUMP JUMPDEST SWAP1 POP PUSH1 0x0 PUSH1 0x7 DUP3 DUP2 SLOAD DUP2 LT PUSH3 0x1380 JUMPI PUSH3 0x1380 PUSH3 0x1AB3 JUMP JUMPDEST PUSH1 0x0 SWAP2 DUP3 MSTORE PUSH1 0x20 SWAP2 DUP3 SWAP1 KECCAK256 PUSH1 0x40 DUP1 MLOAD PUSH1 0xC0 DUP2 ADD DUP3 MSTORE PUSH1 0x4 SWAP1 SWAP4 MUL SWAP1 SWAP2 ADD DUP1 SLOAD PUSH1 0x1 PUSH1 0x1 PUSH1 0xA0 SHL SUB DUP2 AND DUP5 MSTORE PUSH1 0xFF PUSH1 0x1 PUSH1 0xA0 SHL DUP3 DIV DUP2 AND SWAP6 DUP6 ADD SWAP6 SWAP1 SWAP6 MSTORE PUSH1 0x1 PUSH1 0xA8 SHL SWAP1 DIV DUP5 AND SWAP2 DUP4 ADD SWAP2 SWAP1 SWAP2 MSTORE PUSH1 0x1 DUP2 ADD SLOAD PUSH1 0x60 DUP4 ADD MSTORE PUSH1 0x2 DUP1 DUP3 ADD SLOAD PUSH1 0x80 DUP5 ADD MSTORE PUSH1 0x3 DUP3 ADD SLOAD SWAP3 SWAP4 SWAP2 SWAP3 PUSH1 0xA0 DUP6 ADD SWAP3 AND SWAP1 DUP2 GT ISZERO PUSH3 0x1404 JUMPI PUSH3 0x1404 PUSH3 0x17AC JUMP JUMPDEST PUSH1 0x2 DUP2 GT ISZERO PUSH3 0x1418 JUMPI PUSH3 0x1418 PUSH3 0x17AC JUMP JUMPDEST SWAP1 MSTORE POP SWAP1 POP PUSH1 0x0 JUMPDEST PUSH1 0x7 SLOAD DUP2 LT ISZERO PUSH3 0x153D JUMPI PUSH1 0x0 PUSH1 0x7 DUP3 DUP2 SLOAD DUP2 LT PUSH3 0x1443 JUMPI PUSH3 0x1443 PUSH3 0x1AB3 JUMP JUMPDEST PUSH1 0x0 SWAP2 DUP3 MSTORE PUSH1 0x20 SWAP2 DUP3 SWAP1 KECCAK256 PUSH1 0x40 DUP1 MLOAD PUSH1 0xC0 DUP2 ADD DUP3 MSTORE PUSH1 0x4 SWAP1 SWAP4 MUL SWAP1 SWAP2 ADD DUP1 SLOAD PUSH1 0x1 PUSH1 0x1 PUSH1 0xA0 SHL SUB DUP2 AND DUP5 MSTORE PUSH1 0xFF PUSH1 0x1 PUSH1 0xA0 SHL DUP3 DIV DUP2 AND SWAP6 DUP6 ADD SWAP6 SWAP1 SWAP6 MSTORE PUSH1 0x1 PUSH1 0xA8 SHL SWAP1 DIV DUP5 AND SWAP2 DUP4 ADD SWAP2 SWAP1 SWAP2 MSTORE PUSH1 0x1 DUP2 ADD SLOAD PUSH1 0x60 DUP4 ADD MSTORE PUSH1 0x2 DUP1 DUP3 ADD SLOAD PUSH1 0x80 DUP5 ADD MSTORE PUSH1 0x3 DUP3 ADD SLOAD SWAP3 SWAP4 SWAP2 SWAP3 PUSH1 0xA0 DUP6 ADD SWAP3 AND SWAP1 DUP2 GT ISZERO PUSH3 0x14C7 JUMPI PUSH3 0x14C7 PUSH3 0x17AC JUMP JUMPDEST PUSH1 0x2 DUP2 GT ISZERO PUSH3 0x14DB JUMPI PUSH3 0x14DB PUSH3 0x17AC JUMP JUMPDEST DUP2 MSTORE POP POP SWAP1 POP DUP3 PUSH1 0x80 ADD MLOAD DUP2 PUSH1 0x80 ADD MLOAD SUB PUSH3 0x1527 JUMPI PUSH1 0x3 DUP1 SLOAD PUSH1 0x1 DUP2 ADD DUP3 SSTORE PUSH1 0x0 SWAP2 SWAP1 SWAP2 MSTORE PUSH32 0xC2575A0E9E593C00F959F8C92F12DB2869C3395A3B0502D05E2516446F71F85B ADD DUP3 SWAP1 SSTORE JUMPDEST POP DUP1 PUSH3 0x1534 DUP2 PUSH3 0x1AC9 JUMP JUMPDEST SWAP2 POP POP PUSH3 0x1420 JUMP JUMPDEST POP PUSH1 0x3 SWAP5 SWAP4 POP POP POP POP JUMP JUMPDEST PUSH1 0x2 SLOAD PUSH1 0x0 SWAP1 DUP1 DUP3 JUMPDEST PUSH1 0x7 SLOAD DUP2 LT ISZERO PUSH3 0x16B2 JUMPI PUSH1 0x0 PUSH1 0x7 DUP3 DUP2 SLOAD DUP2 LT PUSH3 0x1574 JUMPI PUSH3 0x1574 PUSH3 0x1AB3 JUMP JUMPDEST PUSH1 0x0 SWAP2 DUP3 MSTORE PUSH1 0x20 SWAP2 DUP3 SWAP1 KECCAK256 PUSH1 0x40 DUP1 MLOAD PUSH1 0xC0 DUP2 ADD DUP3 MSTORE PUSH1 0x4 SWAP1 SWAP4 MUL SWAP1 SWAP2 ADD DUP1 SLOAD PUSH1 0x1 PUSH1 0x1 PUSH1 0xA0 SHL SUB DUP2 AND DUP5 MSTORE PUSH1 0xFF PUSH1 0x1 PUSH1 0xA0 SHL DUP3 DIV DUP2 AND SWAP6 DUP6 ADD SWAP6 SWAP1 SWAP6 MSTORE PUSH1 0x1 PUSH1 0xA8 SHL SWAP1 DIV DUP5 AND SWAP2 DUP4 ADD SWAP2 SWAP1 SWAP2 MSTORE PUSH1 0x1 DUP2 ADD SLOAD PUSH1 0x60 DUP4 ADD MSTORE PUSH1 0x2 DUP1 DUP3 ADD SLOAD PUSH1 0x80 DUP5 ADD MSTORE PUSH1 0x3 DUP3 ADD SLOAD SWAP3 SWAP4 SWAP2 SWAP3 PUSH1 0xA0 DUP6 ADD SWAP3 AND SWAP1 DUP2 GT ISZERO PUSH3 0x15F8 JUMPI PUSH3 0x15F8 PUSH3 0x17AC JUMP JUMPDEST PUSH1 0x2 DUP2 GT ISZERO PUSH3 0x160C JUMPI PUSH3 0x160C PUSH3 0x17AC JUMP JUMPDEST DUP2 MSTORE POP POP SWAP1 POP DUP6 PUSH1 0x0 ADD MLOAD PUSH1 0xFF AND DUP2 PUSH1 0x20 ADD MLOAD PUSH1 0xFF AND LT ISZERO DUP1 ISZERO PUSH3 0x163F JUMPI POP DUP6 PUSH1 0x20 ADD MLOAD PUSH1 0xFF AND DUP2 PUSH1 0x40 ADD MLOAD PUSH1 0xFF AND LT ISZERO JUMPDEST DUP1 ISZERO PUSH3 0x164F JUMPI POP DUP1 PUSH1 0x80 ADD MLOAD DUP4 GT JUMPDEST DUP1 ISZERO PUSH3 0x168B JUMPI POP DUP6 PUSH1 0x60 ADD MLOAD PUSH1 0x2 DUP2 GT ISZERO PUSH3 0x1670 JUMPI PUSH3 0x1670 PUSH3 0x17AC JUMP JUMPDEST DUP2 PUSH1 0xA0 ADD MLOAD PUSH1 0x2 DUP2 GT ISZERO PUSH3 0x1689 JUMPI PUSH3 0x1689 PUSH3 0x17AC JUMP JUMPDEST EQ JUMPDEST ISZERO PUSH3 0x169C JUMPI DUP1 PUSH1 0x80 ADD MLOAD SWAP3 POP DUP2 SWAP4 POP JUMPDEST POP DUP1 PUSH3 0x16A9 DUP2 PUSH3 0x1AC9 JUMP JUMPDEST SWAP2 POP POP PUSH3 0x1551 JUMP JUMPDEST POP SWAP1 SWAP4 SWAP3 POP POP POP JUMP JUMPDEST DUP3 DUP1 SLOAD DUP3 DUP3 SSTORE SWAP1 PUSH1 0x0 MSTORE PUSH1 0x20 PUSH1 0x0 KECCAK256 SWAP1 DUP2 ADD SWAP3 DUP3 ISZERO PUSH3 0x16FE JUMPI PUSH1 0x0 MSTORE PUSH1 0x20 PUSH1 0x0 KECCAK256 SWAP2 DUP3 ADD JUMPDEST DUP3 DUP2 GT ISZERO PUSH3 0x16FE JUMPI DUP3 SLOAD DUP3 SSTORE SWAP2 PUSH1 0x1 ADD SWAP2 SWAP1 PUSH1 0x1 ADD SWAP1 PUSH3 0x16E1 JUMP JUMPDEST POP PUSH3 0x170C SWAP3 SWAP2 POP PUSH3 0x175C JUMP JUMPDEST POP SWAP1 JUMP JUMPDEST PUSH2 0x1528 DUP1 PUSH3 0x1C84 DUP4 CODECOPY ADD SWAP1 JUMP JUMPDEST DUP3 DUP1 SLOAD DUP3 DUP3 SSTORE SWAP1 PUSH1 0x0 MSTORE PUSH1 0x20 PUSH1 0x0 KECCAK256 SWAP1 DUP2 ADD SWAP3 DUP3 ISZERO PUSH3 0x16FE JUMPI SWAP2 PUSH1 0x20 MUL DUP3 ADD JUMPDEST DUP3 DUP2 GT ISZERO PUSH3 0x16FE JUMPI DUP3 MLOAD DUP3 SSTORE SWAP2 PUSH1 0x20 ADD SWAP2 SWAP1 PUSH1 0x1 ADD SWAP1 PUSH3 0x173F JUMP JUMPDEST JUMPDEST DUP1 DUP3 GT ISZERO PUSH3 0x170C JUMPI PUSH1 0x0 DUP2 SSTORE PUSH1 0x1 ADD PUSH3 0x175D JUMP JUMPDEST PUSH1 0x1 PUSH1 0x1 PUSH1 0xA0 SHL SUB DUP2 AND DUP2 EQ PUSH3 0x1789 JUMPI PUSH1 0x0 DUP1 REVERT JUMPDEST POP JUMP JUMPDEST PUSH1 0x0 PUSH1 0x20 DUP3 DUP5 SUB SLT ISZERO PUSH3 0x179F JUMPI PUSH1 0x0 DUP1 REVERT JUMPDEST DUP2 CALLDATALOAD PUSH3 0xEFA DUP2 PUSH3 0x1773 JUMP JUMPDEST PUSH4 0x4E487B71 PUSH1 0xE0 SHL PUSH1 0x0 MSTORE PUSH1 0x21 PUSH1 0x4 MSTORE PUSH1 0x24 PUSH1 0x0 REVERT JUMPDEST PUSH1 0x3 DUP2 LT PUSH3 0x17E1 JUMPI PUSH4 0x4E487B71 PUSH1 0xE0 SHL PUSH1 0x0 MSTORE PUSH1 0x21 PUSH1 0x4 MSTORE PUSH1 0x24 PUSH1 0x0 REVERT JUMPDEST SWAP1 MSTORE JUMP JUMPDEST PUSH1 0x1 PUSH1 0x1 PUSH1 0xA0 SHL SUB DUP8 AND DUP2 MSTORE PUSH1 0xFF DUP7 DUP2 AND PUSH1 0x20 DUP4 ADD MSTORE DUP6 AND PUSH1 0x40 DUP3 ADD MSTORE PUSH1 0x60 DUP2 ADD DUP5 SWAP1 MSTORE PUSH1 0x80 DUP2 ADD DUP4 SWAP1 MSTORE PUSH1 0xC0 DUP2 ADD PUSH3 0x1823 PUSH1 0xA0 DUP4 ADD DUP5 PUSH3 0x17C2 JUMP JUMPDEST SWAP8 SWAP7 POP POP POP POP POP POP POP JUMP JUMPDEST PUSH1 0x0 PUSH1 0x20 DUP3 DUP5 SUB SLT ISZERO PUSH3 0x1841 JUMPI PUSH1 0x0 DUP1 REVERT JUMPDEST POP CALLDATALOAD SWAP2 SWAP1 POP JUMP JUMPDEST PUSH1 0x0 PUSH1 0xC0 DUP3 ADD SWAP1 POP PUSH1 0x1 DUP1 PUSH1 0xA0 SHL SUB DUP4 MLOAD AND DUP3 MSTORE PUSH1 0xFF PUSH1 0x20 DUP5 ADD MLOAD AND PUSH1 0x20 DUP4 ADD MSTORE PUSH1 0xFF PUSH1 0x40 DUP5 ADD MLOAD AND PUSH1 0x40 DUP4 ADD MSTORE PUSH1 0x60 DUP4 ADD MLOAD PUSH1 0x60 DUP4 ADD MSTORE PUSH1 0x80 DUP4 ADD MLOAD PUSH1 0x80 DUP4 ADD MSTORE PUSH1 0xA0 DUP4 ADD MLOAD PUSH3 0x189E PUSH1 0xA0 DUP5 ADD DUP3 PUSH3 0x17C2 JUMP JUMPDEST POP SWAP3 SWAP2 POP POP JUMP JUMPDEST PUSH1 0xFF DUP2 AND DUP2 EQ PUSH3 0x1789 JUMPI PUSH1 0x0 DUP1 REVERT JUMPDEST DUP1 CALLDATALOAD PUSH1 0x3 DUP2 LT PUSH3 0x18C5 JUMPI PUSH1 0x0 DUP1 REVERT JUMPDEST SWAP2 SWAP1 POP JUMP JUMPDEST PUSH1 0x0 PUSH1 0x80 DUP3 DUP5 SUB SLT ISZERO PUSH3 0x18DD JUMPI PUSH1 0x0 DUP1 REVERT JUMPDEST PUSH1 0x40 MLOAD PUSH1 0x80 DUP2 ADD DUP2 DUP2 LT PUSH8 0xFFFFFFFFFFFFFFFF DUP3 GT OR ISZERO PUSH3 0x190F JUMPI PUSH4 0x4E487B71 PUSH1 0xE0 SHL PUSH1 0x0 MSTORE PUSH1 0x41 PUSH1 0x4 MSTORE PUSH1 0x24 PUSH1 0x0 REVERT JUMPDEST PUSH1 0x40 MSTORE DUP3 CALLDATALOAD PUSH3 0x191F DUP2 PUSH3 0x18A5 JUMP JUMPDEST DUP2 MSTORE PUSH1 0x20 DUP4 ADD CALLDATALOAD PUSH3 0x1931 DUP2 PUSH3 0x18A5 JUMP JUMPDEST PUSH1 0x20 DUP3 ADD MSTORE PUSH1 0x40 DUP4 ADD CALLDATALOAD PUSH2 0xFFFF DUP2 AND DUP2 EQ PUSH3 0x194C JUMPI PUSH1 0x0 DUP1 REVERT JUMPDEST PUSH1 0x40 DUP3 ADD MSTORE PUSH3 0x195F PUSH1 0x60 DUP5 ADD PUSH3 0x18B5 JUMP JUMPDEST PUSH1 0x60 DUP3 ADD MSTORE SWAP4 SWAP3 POP POP POP JUMP JUMPDEST PUSH1 0x0 DUP1 PUSH1 0x0 DUP1 PUSH1 0x0 PUSH1 0xA0 DUP7 DUP9 SUB SLT ISZERO PUSH3 0x1984 JUMPI PUSH1 0x0 DUP1 REVERT JUMPDEST DUP6 CALLDATALOAD PUSH3 0x1991 DUP2 PUSH3 0x18A5 JUMP JUMPDEST SWAP5 POP PUSH1 0x20 DUP7 ADD CALLDATALOAD PUSH3 0x19A3 DUP2 PUSH3 0x18A5 JUMP JUMPDEST SWAP4 POP PUSH1 0x40 DUP7 ADD CALLDATALOAD SWAP3 POP PUSH1 0x60 DUP7 ADD CALLDATALOAD SWAP2 POP PUSH3 0x19C1 PUSH1 0x80 DUP8 ADD PUSH3 0x18B5 JUMP JUMPDEST SWAP1 POP SWAP3 SWAP6 POP SWAP3 SWAP6 SWAP1 SWAP4 POP JUMP JUMPDEST PUSH1 0x0 PUSH1 0x20 DUP3 DUP5 SUB SLT ISZERO PUSH3 0x19E0 JUMPI PUSH1 0x0 DUP1 REVERT JUMPDEST DUP2 MLOAD PUSH3 0xEFA DUP2 PUSH3 0x1773 JUMP JUMPDEST PUSH4 0x4E487B71 PUSH1 0xE0 SHL PUSH1 0x0 MSTORE PUSH1 0x11 PUSH1 0x4 MSTORE PUSH1 0x24 PUSH1 0x0 REVERT JUMPDEST PUSH1 0x0 DUP3 NOT DUP3 GT ISZERO PUSH3 0x1A19 JUMPI PUSH3 0x1A19 PUSH3 0x19ED JUMP JUMPDEST POP ADD SWAP1 JUMP JUMPDEST PUSH1 0x0 DUP2 PUSH1 0x0 NOT DIV DUP4 GT DUP3 ISZERO ISZERO AND ISZERO PUSH3 0x1A3B JUMPI PUSH3 0x1A3B PUSH3 0x19ED JUMP JUMPDEST POP MUL SWAP1 JUMP JUMPDEST PUSH4 0x4E487B71 PUSH1 0xE0 SHL PUSH1 0x0 MSTORE PUSH1 0x12 PUSH1 0x4 MSTORE PUSH1 0x24 PUSH1 0x0 REVERT JUMPDEST PUSH1 0x0 DUP3 PUSH3 0x1A68 JUMPI PUSH3 0x1A68 PUSH3 0x1A40 JUMP JUMPDEST POP DIV SWAP1 JUMP JUMPDEST PUSH1 0x0 PUSH1 0x20 DUP3 DUP5 SUB SLT ISZERO PUSH3 0x1A80 JUMPI PUSH1 0x0 DUP1 REVERT JUMPDEST DUP2 MLOAD PUSH3 0xEFA DUP2 PUSH3 0x18A5 JUMP JUMPDEST PUSH1 0x0 PUSH1 0xFF DUP3 AND PUSH1 0xFF DUP5 AND DUP1 DUP3 LT ISZERO PUSH3 0x1AAA JUMPI PUSH3 0x1AAA PUSH3 0x19ED JUMP JUMPDEST SWAP1 SUB SWAP4 SWAP3 POP POP POP JUMP JUMPDEST PUSH4 0x4E487B71 PUSH1 0xE0 SHL PUSH1 0x0 MSTORE PUSH1 0x32 PUSH1 0x4 MSTORE PUSH1 0x24 PUSH1 0x0 REVERT JUMPDEST PUSH1 0x0 PUSH1 0x1 DUP3 ADD PUSH3 0x1ADE JUMPI PUSH3 0x1ADE PUSH3 0x19ED JUMP JUMPDEST POP PUSH1 0x1 ADD SWAP1 JUMP JUMPDEST PUSH1 0x0 DUP3 PUSH3 0x1AF7 JUMPI PUSH3 0x1AF7 PUSH3 0x1A40 JUMP JUMPDEST POP MOD SWAP1 JUMP JUMPDEST PUSH1 0xFF DUP8 DUP2 AND DUP3 MSTORE DUP7 AND PUSH1 0x20 DUP3 ADD MSTORE PUSH2 0xFFFF DUP6 AND PUSH1 0x40 DUP3 ADD MSTORE PUSH1 0xC0 DUP2 ADD PUSH3 0x1B27 PUSH1 0x60 DUP4 ADD DUP7 PUSH3 0x17C2 JUMP JUMPDEST PUSH1 0x1 PUSH1 0x1 PUSH1 0xA0 SHL SUB SWAP4 DUP5 AND PUSH1 0x80 DUP4 ADD MSTORE SWAP2 SWAP1 SWAP3 AND PUSH1 0xA0 SWAP1 SWAP3 ADD SWAP2 SWAP1 SWAP2 MSTORE SWAP5 SWAP4 POP POP POP POP JUMP JUMPDEST PUSH1 0x0 PUSH1 0xFF DUP3 AND PUSH1 0xFF DUP5 AND DUP1 PUSH1 0xFF SUB DUP3 GT ISZERO PUSH3 0x1B6C JUMPI PUSH3 0x1B6C PUSH3 0x19ED JUMP JUMPDEST ADD SWAP4 SWAP3 POP POP POP JUMP JUMPDEST PUSH1 0x0 DUP3 DUP3 LT ISZERO PUSH3 0x1B89 JUMPI PUSH3 0x1B89 PUSH3 0x19ED JUMP JUMPDEST POP SUB SWAP1 JUMP JUMPDEST DUP1 MLOAD PUSH10 0xFFFFFFFFFFFFFFFFFFFF DUP2 AND DUP2 EQ PUSH3 0x18C5 JUMPI PUSH1 0x0 DUP1 REVERT JUMPDEST PUSH1 0x0 DUP1 PUSH1 0x0 DUP1 PUSH1 0x0 PUSH1 0xA0 DUP7 DUP9 SUB SLT ISZERO PUSH3 0x1BC2 JUMPI PUSH1 0x0 DUP1 REVERT JUMPDEST PUSH3 0x1BCD DUP7 PUSH3 0x1B8E JUMP JUMPDEST SWAP5 POP PUSH1 0x20 DUP7 ADD MLOAD SWAP4 POP PUSH1 0x40 DUP7 ADD MLOAD SWAP3 POP PUSH1 0x60 DUP7 ADD MLOAD SWAP2 POP PUSH3 0x19C1 PUSH1 0x80 DUP8 ADD PUSH3 0x1B8E JUMP JUMPDEST PUSH1 0x0 PUSH1 0x1 PUSH1 0x1 PUSH1 0xFF SHL SUB DUP2 DUP5 SGT DUP3 DUP5 SGT DUP1 DUP3 AND DUP7 DUP5 DIV DUP7 GT AND ISZERO PUSH3 0x1C1B JUMPI PUSH3 0x1C1B PUSH3 0x19ED JUMP JUMPDEST PUSH1 0x1 PUSH1 0xFF SHL PUSH1 0x0 DUP8 SLT DUP3 DUP2 AND DUP8 DUP4 SDIV DUP10 SLT AND ISZERO PUSH3 0x1C3D JUMPI PUSH3 0x1C3D PUSH3 0x19ED JUMP JUMPDEST PUSH1 0x0 DUP8 SLT SWAP3 POP DUP8 DUP3 SDIV DUP8 SLT DUP5 DUP5 AND AND ISZERO PUSH3 0x1C5C JUMPI PUSH3 0x1C5C PUSH3 0x19ED JUMP JUMPDEST DUP8 DUP6 SDIV DUP8 SLT DUP2 DUP5 AND AND ISZERO PUSH3 0x1C75 JUMPI PUSH3 0x1C75 PUSH3 0x19ED JUMP JUMPDEST POP POP POP SWAP3 SWAP1 SWAP4 MUL SWAP4 SWAP3 POP POP POP JUMP INVALID PUSH1 0x80 PUSH1 0x40 MSTORE PUSH1 0x3 PUSH1 0x4 SSTORE PUSH1 0x40 MLOAD PUSH3 0x1528 CODESIZE SUB DUP1 PUSH3 0x1528 DUP4 CODECOPY DUP2 ADD PUSH1 0x40 DUP2 SWAP1 MSTORE PUSH3 0x2B SWAP2 PUSH3 0x228 JUMP JUMPDEST PUSH3 0x36 CALLER PUSH3 0xD4 JUMP JUMPDEST PUSH1 0x0 DUP1 SLOAD PUSH1 0xFF DUP8 DUP2 AND PUSH1 0x1 PUSH1 0xA8 SHL MUL PUSH1 0xFF PUSH1 0xA8 SHL NOT SWAP2 DUP11 AND PUSH1 0x1 PUSH1 0xA0 SHL MUL SWAP2 SWAP1 SWAP2 AND PUSH2 0xFFFF PUSH1 0xA0 SHL NOT SWAP1 SWAP3 AND SWAP2 SWAP1 SWAP2 OR OR SWAP1 SSTORE PUSH1 0x3 DUP5 SWAP1 SSTORE PUSH1 0x5 DUP1 SLOAD PUSH1 0x1 PUSH1 0x1 PUSH1 0xA0 SHL SUB DUP1 DUP6 AND PUSH1 0x1 PUSH1 0x1 PUSH1 0xA0 SHL SUB NOT SWAP3 DUP4 AND DUP2 OR SWAP1 SWAP4 SSTORE PUSH1 0x6 DUP1 SLOAD SWAP2 DUP6 AND SWAP2 SWAP1 SWAP3 AND OR SWAP1 SSTORE DUP4 SWAP1 PUSH3 0xA9 SWAP1 PUSH3 0x124 JUMP JUMPDEST POP POP PUSH1 0xA DUP1 SLOAD CALLVALUE PUSH1 0x9 SSTORE PUSH1 0x1 PUSH1 0x1 PUSH1 0xA8 SHL SUB NOT AND CALLER PUSH1 0xFF PUSH1 0xA0 SHL NOT AND OR SWAP1 SSTORE POP PUSH3 0x2A5 SWAP4 POP POP POP POP JUMP JUMPDEST PUSH1 0x0 DUP1 SLOAD PUSH1 0x1 PUSH1 0x1 PUSH1 0xA0 SHL SUB DUP4 DUP2 AND PUSH1 0x1 PUSH1 0x1 PUSH1 0xA0 SHL SUB NOT DUP4 AND DUP2 OR DUP5 SSTORE PUSH1 0x40 MLOAD SWAP2 SWAP1 SWAP3 AND SWAP3 DUP4 SWAP2 PUSH32 0x8BE0079C531659141344CD1FD0A4F28419497F9722A3DAAFE3B4186F6B6457E0 SWAP2 SWAP1 LOG3 POP POP JUMP JUMPDEST PUSH1 0x0 SLOAD PUSH1 0x1 PUSH1 0x1 PUSH1 0xA0 SHL SUB AND CALLER EQ PUSH3 0x184 JUMPI PUSH1 0x40 MLOAD PUSH3 0x461BCD PUSH1 0xE5 SHL DUP2 MSTORE PUSH1 0x20 PUSH1 0x4 DUP3 ADD DUP2 SWAP1 MSTORE PUSH1 0x24 DUP3 ADD MSTORE PUSH32 0x4F776E61626C653A2063616C6C6572206973206E6F7420746865206F776E6572 PUSH1 0x44 DUP3 ADD MSTORE PUSH1 0x64 ADD JUMPDEST PUSH1 0x40 MLOAD DUP1 SWAP2 SUB SWAP1 REVERT JUMPDEST PUSH1 0x1 PUSH1 0x1 PUSH1 0xA0 SHL SUB DUP2 AND PUSH3 0x1EB JUMPI PUSH1 0x40 MLOAD PUSH3 0x461BCD PUSH1 0xE5 SHL DUP2 MSTORE PUSH1 0x20 PUSH1 0x4 DUP3 ADD MSTORE PUSH1 0x26 PUSH1 0x24 DUP3 ADD MSTORE PUSH32 0x4F776E61626C653A206E6577206F776E657220697320746865207A65726F2061 PUSH1 0x44 DUP3 ADD MSTORE PUSH6 0x646472657373 PUSH1 0xD0 SHL PUSH1 0x64 DUP3 ADD MSTORE PUSH1 0x84 ADD PUSH3 0x17B JUMP JUMPDEST PUSH3 0x1F6 DUP2 PUSH3 0xD4 JUMP JUMPDEST POP JUMP JUMPDEST DUP1 MLOAD PUSH1 0xFF DUP2 AND DUP2 EQ PUSH3 0x20B JUMPI PUSH1 0x0 DUP1 REVERT JUMPDEST SWAP2 SWAP1 POP JUMP JUMPDEST DUP1 MLOAD PUSH1 0x1 PUSH1 0x1 PUSH1 0xA0 SHL SUB DUP2 AND DUP2 EQ PUSH3 0x20B JUMPI PUSH1 0x0 DUP1 REVERT JUMPDEST PUSH1 0x0 DUP1 PUSH1 0x0 DUP1 PUSH1 0x0 DUP1 PUSH1 0xC0 DUP8 DUP10 SUB SLT ISZERO PUSH3 0x242 JUMPI PUSH1 0x0 DUP1 REVERT JUMPDEST PUSH3 0x24D DUP8 PUSH3 0x1F9 JUMP JUMPDEST SWAP6 POP PUSH3 0x25D PUSH1 0x20 DUP9 ADD PUSH3 0x1F9 JUMP JUMPDEST SWAP5 POP PUSH1 0x40 DUP8 ADD MLOAD SWAP4 POP PUSH1 0x60 DUP8 ADD MLOAD PUSH1 0x3 DUP2 LT PUSH3 0x279 JUMPI PUSH1 0x0 DUP1 REVERT JUMPDEST SWAP3 POP PUSH3 0x289 PUSH1 0x80 DUP9 ADD PUSH3 0x210 JUMP JUMPDEST SWAP2 POP PUSH3 0x299 PUSH1 0xA0 DUP9 ADD PUSH3 0x210 JUMP JUMPDEST SWAP1 POP SWAP3 SWAP6 POP SWAP3 SWAP6 POP SWAP3 SWAP6 JUMP JUMPDEST PUSH2 0x1273 DUP1 PUSH3 0x2B5 PUSH1 0x0 CODECOPY PUSH1 0x0 RETURN INVALID PUSH1 0x80 PUSH1 0x40 MSTORE PUSH1 0x4 CALLDATASIZE LT PUSH2 0xC2 JUMPI PUSH1 0x0 CALLDATALOAD PUSH1 0xE0 SHR DUP1 PUSH4 0x7492174F GT PUSH2 0x7F JUMPI DUP1 PUSH4 0xC41C28A9 GT PUSH2 0x59 JUMPI DUP1 PUSH4 0xC41C28A9 EQ PUSH2 0x1F8 JUMPI DUP1 PUSH4 0xE237A3FC EQ PUSH2 0x20D JUMPI DUP1 PUSH4 0xF2FDE38B EQ PUSH2 0x222 JUMPI DUP1 PUSH4 0xFE0AE165 EQ PUSH2 0x242 JUMPI PUSH1 0x0 DUP1 REVERT JUMPDEST DUP1 PUSH4 0x7492174F EQ PUSH2 0x198 JUMPI DUP1 PUSH4 0x8DA5CB5B EQ PUSH2 0x1C5 JUMPI DUP1 PUSH4 0x9EA6B4F4 EQ PUSH2 0x1E3 JUMPI PUSH1 0x0 DUP1 REVERT JUMPDEST DUP1 PUSH4 0x9B0CA7A EQ PUSH2 0xC7 JUMPI DUP1 PUSH4 0x1A63B100 EQ PUSH2 0xFF JUMPI DUP1 PUSH4 0x200D2ED2 EQ PUSH2 0x120 JUMPI DUP1 PUSH4 0x251D10B0 EQ PUSH2 0x14E JUMPI DUP1 PUSH4 0x715018A6 EQ PUSH2 0x163 JUMPI DUP1 PUSH4 0x72DD4084 EQ PUSH2 0x178 JUMPI JUMPDEST PUSH1 0x0 DUP1 REVERT JUMPDEST CALLVALUE DUP1 ISZERO PUSH2 0xD3 JUMPI PUSH1 0x0 DUP1 REVERT JUMPDEST POP PUSH1 0x0 SLOAD PUSH2 0xE8 SWAP1 PUSH1 0x1 PUSH1 0xA0 SHL SWAP1 DIV PUSH1 0xFF AND DUP2 JUMP JUMPDEST PUSH1 0x40 MLOAD PUSH1 0xFF SWAP1 SWAP2 AND DUP2 MSTORE PUSH1 0x20 ADD JUMPDEST PUSH1 0x40 MLOAD DUP1 SWAP2 SUB SWAP1 RETURN JUMPDEST CALLVALUE DUP1 ISZERO PUSH2 0x10B JUMPI PUSH1 0x0 DUP1 REVERT JUMPDEST POP PUSH1 0x0 SLOAD PUSH2 0xE8 SWAP1 PUSH1 0x1 PUSH1 0xA8 SHL SWAP1 DIV PUSH1 0xFF AND DUP2 JUMP JUMPDEST CALLVALUE DUP1 ISZERO PUSH2 0x12C JUMPI PUSH1 0x0 DUP1 REVERT JUMPDEST POP PUSH1 0xA SLOAD PUSH2 0x141 SWAP1 PUSH1 0x1 PUSH1 0xA0 SHL SWAP1 DIV PUSH1 0xFF AND DUP2 JUMP JUMPDEST PUSH1 0x40 MLOAD PUSH2 0xF6 SWAP2 SWAP1 PUSH2 0xDFE JUMP JUMPDEST PUSH2 0x161 PUSH2 0x15C CALLDATASIZE PUSH1 0x4 PUSH2 0xE26 JUMP JUMPDEST PUSH2 0x265 JUMP JUMPDEST STOP JUMPDEST CALLVALUE DUP1 ISZERO PUSH2 0x16F JUMPI PUSH1 0x0 DUP1 REVERT JUMPDEST POP PUSH2 0x161 PUSH2 0x2CB JUMP JUMPDEST CALLVALUE DUP1 ISZERO PUSH2 0x184 JUMPI PUSH1 0x0 DUP1 REVERT JUMPDEST POP PUSH2 0x161 PUSH2 0x193 CALLDATASIZE PUSH1 0x4 PUSH2 0xEE2 JUMP JUMPDEST PUSH2 0x301 JUMP JUMPDEST CALLVALUE DUP1 ISZERO PUSH2 0x1A4 JUMPI PUSH1 0x0 DUP1 REVERT JUMPDEST POP PUSH2 0x1AD PUSH2 0x3D1 JUMP JUMPDEST PUSH1 0x40 MLOAD PUSH1 0x1 PUSH1 0x1 PUSH1 0xA0 SHL SUB SWAP1 SWAP2 AND DUP2 MSTORE PUSH1 0x20 ADD PUSH2 0xF6 JUMP JUMPDEST CALLVALUE DUP1 ISZERO PUSH2 0x1D1 JUMPI PUSH1 0x0 DUP1 REVERT JUMPDEST POP PUSH1 0x0 SLOAD PUSH1 0x1 PUSH1 0x1 PUSH1 0xA0 SHL SUB AND PUSH2 0x1AD JUMP JUMPDEST CALLVALUE DUP1 ISZERO PUSH2 0x1EF JUMPI PUSH1 0x0 DUP1 REVERT JUMPDEST POP PUSH2 0x1AD PUSH2 0x40E JUMP JUMPDEST CALLVALUE DUP1 ISZERO PUSH2 0x204 JUMPI PUSH1 0x0 DUP1 REVERT JUMPDEST POP PUSH2 0x161 PUSH2 0x44B JUMP JUMPDEST CALLVALUE DUP1 ISZERO PUSH2 0x219 JUMPI PUSH1 0x0 DUP1 REVERT JUMPDEST POP PUSH2 0x161 PUSH2 0x4E1 JUMP JUMPDEST CALLVALUE DUP1 ISZERO PUSH2 0x22E JUMPI PUSH1 0x0 DUP1 REVERT JUMPDEST POP PUSH2 0x161 PUSH2 0x23D CALLDATASIZE PUSH1 0x4 PUSH2 0xF46 JUMP JUMPDEST PUSH2 0x50B JUMP JUMPDEST CALLVALUE DUP1 ISZERO PUSH2 0x24E JUMPI PUSH1 0x0 DUP1 REVERT JUMPDEST POP PUSH2 0x257 PUSH2 0x5A6 JUMP JUMPDEST PUSH1 0x40 MLOAD PUSH2 0xF6 SWAP3 SWAP2 SWAP1 PUSH2 0xFBC JUMP JUMPDEST PUSH1 0xA SLOAD PUSH1 0x1 PUSH1 0x1 PUSH1 0xA0 SHL SUB AND CALLER EQ PUSH2 0x298 JUMPI PUSH1 0x40 MLOAD PUSH3 0x461BCD PUSH1 0xE5 SHL DUP2 MSTORE PUSH1 0x4 ADD PUSH2 0x28F SWAP1 PUSH2 0xFEA JUMP JUMPDEST PUSH1 0x40 MLOAD DUP1 SWAP2 SUB SWAP1 REVERT JUMPDEST DUP1 PUSH1 0x2 PUSH1 0x0 DUP3 DUP3 SLOAD PUSH2 0x2AA SWAP2 SWAP1 PUSH2 0x1037 JUMP JUMPDEST SWAP3 POP POP DUP2 SWAP1 SSTORE POP DUP1 PUSH1 0x3 PUSH1 0x0 DUP3 DUP3 SLOAD PUSH2 0x2C3 SWAP2 SWAP1 PUSH2 0x1037 JUMP JUMPDEST SWAP1 SWAP2 SSTORE POP POP POP JUMP JUMPDEST PUSH1 0x0 SLOAD PUSH1 0x1 PUSH1 0x1 PUSH1 0xA0 SHL SUB AND CALLER EQ PUSH2 0x2F5 JUMPI PUSH1 0x40 MLOAD PUSH3 0x461BCD PUSH1 0xE5 SHL DUP2 MSTORE PUSH1 0x4 ADD PUSH2 0x28F SWAP1 PUSH2 0x104F JUMP JUMPDEST PUSH2 0x2FF PUSH1 0x0 PUSH2 0x68C JUMP JUMPDEST JUMP JUMPDEST PUSH1 0x6 SLOAD PUSH1 0x1 PUSH1 0x1 PUSH1 0xA0 SHL SUB AND CALLER EQ PUSH2 0x32B JUMPI PUSH1 0x40 MLOAD PUSH3 0x461BCD PUSH1 0xE5 SHL DUP2 MSTORE PUSH1 0x4 ADD PUSH2 0x28F SWAP1 PUSH2 0x1084 JUMP JUMPDEST PUSH1 0xA PUSH1 0x0 SWAP1 SLOAD SWAP1 PUSH2 0x100 EXP SWAP1 DIV PUSH1 0x1 PUSH1 0x1 PUSH1 0xA0 SHL SUB AND PUSH1 0x1 PUSH1 0x1 PUSH1 0xA0 SHL SUB AND PUSH4 0x2C8F85F4 PUSH1 0x40 MLOAD DUP2 PUSH4 0xFFFFFFFF AND PUSH1 0xE0 SHL DUP2 MSTORE PUSH1 0x4 ADD PUSH1 0x0 PUSH1 0x40 MLOAD DUP1 DUP4 SUB DUP2 PUSH1 0x0 DUP8 DUP1 EXTCODESIZE ISZERO DUP1 ISZERO PUSH2 0x37B JUMPI PUSH1 0x0 DUP1 REVERT JUMPDEST POP GAS CALL ISZERO DUP1 ISZERO PUSH2 0x38F JUMPI RETURNDATASIZE PUSH1 0x0 DUP1 RETURNDATACOPY RETURNDATASIZE PUSH1 0x0 REVERT JUMPDEST POP POP POP POP PUSH2 0x39C DUP3 PUSH2 0x6DC JUMP JUMPDEST PUSH2 0x3A5 DUP2 PUSH2 0x71D JUMP JUMPDEST TIMESTAMP PUSH1 0x1 DUP2 SWAP1 SSTORE PUSH1 0x3 SLOAD PUSH2 0x3B7 SWAP2 PUSH2 0x1037 JUMP JUMPDEST PUSH1 0x2 SSTORE POP POP PUSH1 0xA DUP1 SLOAD PUSH1 0xFF PUSH1 0xA0 SHL NOT AND PUSH1 0x1 PUSH1 0xA0 SHL OR SWAP1 SSTORE JUMP JUMPDEST PUSH1 0xA SLOAD PUSH1 0x0 SWAP1 PUSH1 0x1 PUSH1 0x1 PUSH1 0xA0 SHL SUB AND CALLER EQ PUSH2 0x3FE JUMPI PUSH1 0x40 MLOAD PUSH3 0x461BCD PUSH1 0xE5 SHL DUP2 MSTORE PUSH1 0x4 ADD PUSH2 0x28F SWAP1 PUSH2 0xFEA JUMP JUMPDEST POP PUSH1 0x6 SLOAD PUSH1 0x1 PUSH1 0x1 PUSH1 0xA0 SHL SUB AND SWAP1 JUMP JUMPDEST PUSH1 0xA SLOAD PUSH1 0x0 SWAP1 PUSH1 0x1 PUSH1 0x1 PUSH1 0xA0 SHL SUB AND CALLER EQ PUSH2 0x43B JUMPI PUSH1 0x40 MLOAD PUSH3 0x461BCD PUSH1 0xE5 SHL DUP2 MSTORE PUSH1 0x4 ADD PUSH2 0x28F SWAP1 PUSH2 0xFEA JUMP JUMPDEST POP PUSH1 0x5 SLOAD PUSH1 0x1 PUSH1 0x1 PUSH1 0xA0 SHL SUB AND SWAP1 JUMP JUMPDEST PUSH1 0x6 SLOAD PUSH1 0x1 PUSH1 0x1 PUSH1 0xA0 SHL SUB AND CALLER EQ PUSH2 0x475 JUMPI PUSH1 0x40 MLOAD PUSH3 0x461BCD PUSH1 0xE5 SHL DUP2 MSTORE PUSH1 0x4 ADD PUSH2 0x28F SWAP1 PUSH2 0x1084 JUMP JUMPDEST PUSH1 0x2 SLOAD TIMESTAMP GT PUSH2 0x4C6 JUMPI PUSH1 0x40 MLOAD PUSH3 0x461BCD PUSH1 0xE5 SHL DUP2 MSTORE PUSH1 0x20 PUSH1 0x4 DUP3 ADD MSTORE PUSH1 0x17 PUSH1 0x24 DUP3 ADD MSTORE PUSH32 0x53657373696F6E206973206E6F74206F76657274696D65000000000000000000 PUSH1 0x44 DUP3 ADD MSTORE PUSH1 0x64 ADD PUSH2 0x28F JUMP JUMPDEST PUSH1 0xA DUP1 SLOAD PUSH1 0xFF PUSH1 0xA0 SHL NOT AND PUSH1 0x3 PUSH1 0xA0 SHL OR SWAP1 SSTORE PUSH2 0x2FF PUSH2 0x7F7 JUMP JUMPDEST PUSH1 0x0 SLOAD PUSH1 0x1 PUSH1 0x1 PUSH1 0xA0 SHL SUB AND CALLER EQ PUSH2 0x4C6 JUMPI PUSH1 0x40 MLOAD PUSH3 0x461BCD PUSH1 0xE5 SHL DUP2 MSTORE PUSH1 0x4 ADD PUSH2 0x28F SWAP1 PUSH2 0x104F JUMP JUMPDEST PUSH1 0x0 SLOAD PUSH1 0x1 PUSH1 0x1 PUSH1 0xA0 SHL SUB AND CALLER EQ PUSH2 0x535 JUMPI PUSH1 0x40 MLOAD PUSH3 0x461BCD PUSH1 0xE5 SHL DUP2 MSTORE PUSH1 0x4 ADD PUSH2 0x28F SWAP1 PUSH2 0x104F JUMP JUMPDEST PUSH1 0x1 PUSH1 0x1 PUSH1 0xA0 SHL SUB DUP2 AND PUSH2 0x59A JUMPI PUSH1 0x40 MLOAD PUSH3 0x461BCD PUSH1 0xE5 SHL DUP2 MSTORE PUSH1 0x20 PUSH1 0x4 DUP3 ADD MSTORE PUSH1 0x26 PUSH1 0x24 DUP3 ADD MSTORE PUSH32 0x4F776E61626C653A206E6577206F776E657220697320746865207A65726F2061 PUSH1 0x44 DUP3 ADD MSTORE PUSH6 0x646472657373 PUSH1 0xD0 SHL PUSH1 0x64 DUP3 ADD MSTORE PUSH1 0x84 ADD PUSH2 0x28F JUMP JUMPDEST PUSH2 0x5A3 DUP2 PUSH2 0x68C JUMP JUMPDEST POP JUMP JUMPDEST PUSH1 0x60 DUP1 CALLER PUSH1 0x1 PUSH1 0x1 PUSH1 0xA0 SHL SUB AND PUSH2 0x5C5 PUSH1 0x0 SLOAD PUSH1 0x1 PUSH1 0x1 PUSH1 0xA0 SHL SUB AND SWAP1 JUMP JUMPDEST PUSH1 0x1 PUSH1 0x1 PUSH1 0xA0 SHL SUB AND EQ PUSH2 0x5EB JUMPI PUSH1 0x40 MLOAD PUSH3 0x461BCD PUSH1 0xE5 SHL DUP2 MSTORE PUSH1 0x4 ADD PUSH2 0x28F SWAP1 PUSH2 0x104F JUMP JUMPDEST PUSH1 0x1 PUSH1 0xA SLOAD PUSH1 0x1 PUSH1 0xA0 SHL SWAP1 DIV PUSH1 0xFF AND PUSH1 0x4 DUP2 GT ISZERO PUSH2 0x60B JUMPI PUSH2 0x60B PUSH2 0xDE8 JUMP JUMPDEST EQ PUSH2 0x658 JUMPI PUSH1 0x40 MLOAD PUSH3 0x461BCD PUSH1 0xE5 SHL DUP2 MSTORE PUSH1 0x20 PUSH1 0x4 DUP3 ADD MSTORE PUSH1 0x19 PUSH1 0x24 DUP3 ADD MSTORE PUSH32 0x53657373696F6E206973206E6F7420636F6E6669677572656400000000000000 PUSH1 0x44 DUP3 ADD MSTORE PUSH1 0x64 ADD PUSH2 0x28F JUMP JUMPDEST PUSH1 0x0 PUSH2 0x662 PUSH2 0x9DB JUMP JUMPDEST SWAP1 POP PUSH1 0x0 PUSH2 0x66E PUSH2 0xA98 JUMP JUMPDEST PUSH1 0xA DUP1 SLOAD PUSH1 0xFF PUSH1 0xA0 SHL NOT AND PUSH1 0x1 PUSH1 0xA1 SHL OR SWAP1 SSTORE SWAP2 SWAP5 SWAP2 SWAP4 POP SWAP1 SWAP2 POP POP JUMP JUMPDEST PUSH1 0x0 DUP1 SLOAD PUSH1 0x1 PUSH1 0x1 PUSH1 0xA0 SHL SUB DUP4 DUP2 AND PUSH1 0x1 PUSH1 0x1 PUSH1 0xA0 SHL SUB NOT DUP4 AND DUP2 OR DUP5 SSTORE PUSH1 0x40 MLOAD SWAP2 SWAP1 SWAP3 AND SWAP3 DUP4 SWAP2 PUSH32 0x8BE0079C531659141344CD1FD0A4F28419497F9722A3DAAFE3B4186F6B6457E0 SWAP2 SWAP1 LOG3 POP POP JUMP JUMPDEST PUSH1 0x6 SLOAD PUSH1 0x1 PUSH1 0x1 PUSH1 0xA0 SHL SUB AND CALLER EQ PUSH2 0x706 JUMPI PUSH1 0x40 MLOAD PUSH3 0x461BCD PUSH1 0xE5 SHL DUP2 MSTORE PUSH1 0x4 ADD PUSH2 0x28F SWAP1 PUSH2 0x1084 JUMP JUMPDEST DUP1 MLOAD PUSH2 0x719 SWAP1 PUSH1 0x7 SWAP1 PUSH1 0x20 DUP5 ADD SWAP1 PUSH2 0xD4F JUMP JUMPDEST POP POP JUMP JUMPDEST PUSH1 0x6 SLOAD PUSH1 0x1 PUSH1 0x1 PUSH1 0xA0 SHL SUB AND CALLER EQ PUSH2 0x747 JUMPI PUSH1 0x40 MLOAD PUSH3 0x461BCD PUSH1 0xE5 SHL DUP2 MSTORE PUSH1 0x4 ADD PUSH2 0x28F SWAP1 PUSH2 0x1084 JUMP JUMPDEST PUSH1 0x0 PUSH1 0xA SLOAD PUSH1 0x1 PUSH1 0xA0 SHL SWAP1 DIV PUSH1 0xFF AND PUSH1 0x4 DUP2 GT ISZERO PUSH2 0x767 JUMPI PUSH2 0x767 PUSH2 0xDE8 JUMP JUMPDEST EQ PUSH2 0x7B4 JUMPI PUSH1 0x40 MLOAD PUSH3 0x461BCD PUSH1 0xE5 SHL DUP2 MSTORE PUSH1 0x20 PUSH1 0x4 DUP3 ADD MSTORE PUSH1 0x1B PUSH1 0x24 DUP3 ADD MSTORE PUSH32 0x53657373696F6E206973206E6F7420696E697469616C6973696E670000000000 PUSH1 0x44 DUP3 ADD MSTORE PUSH1 0x64 ADD PUSH2 0x28F JUMP JUMPDEST PUSH1 0x5 SLOAD PUSH1 0x0 SWAP1 PUSH2 0x7CE SWAP1 CALLER SWAP1 PUSH1 0x1 PUSH1 0x1 PUSH1 0xA0 SHL SUB AND PUSH2 0xC54 JUMP JUMPDEST PUSH1 0x0 DUP2 DUP2 MSTORE PUSH1 0x8 PUSH1 0x20 SWAP1 DUP2 MSTORE PUSH1 0x40 SWAP1 SWAP2 KECCAK256 DUP5 MLOAD SWAP3 SWAP4 POP PUSH2 0x7F2 SWAP3 SWAP1 SWAP2 DUP6 ADD SWAP1 PUSH2 0xD4F JUMP JUMPDEST POP POP POP JUMP JUMPDEST PUSH1 0x3 PUSH1 0xA SLOAD PUSH1 0x1 PUSH1 0xA0 SHL SWAP1 DIV PUSH1 0xFF AND PUSH1 0x4 DUP2 GT ISZERO PUSH2 0x817 JUMPI PUSH2 0x817 PUSH2 0xDE8 JUMP JUMPDEST EQ PUSH2 0x864 JUMPI PUSH1 0x40 MLOAD PUSH3 0x461BCD PUSH1 0xE5 SHL DUP2 MSTORE PUSH1 0x20 PUSH1 0x4 DUP3 ADD MSTORE PUSH1 0x19 PUSH1 0x24 DUP3 ADD MSTORE PUSH32 0x53657373696F6E20686173206E6F7420656E6465642079657400000000000000 PUSH1 0x44 DUP3 ADD MSTORE PUSH1 0x64 ADD PUSH2 0x28F JUMP JUMPDEST PUSH1 0x0 PUSH2 0x86E PUSH2 0xCEB JUMP JUMPDEST SWAP1 POP PUSH1 0x4 SLOAD PUSH1 0x1 PUSH2 0x87F SWAP2 SWAP1 PUSH2 0x10BB JUMP JUMPDEST DUP2 GT ISZERO PUSH2 0x8C8 JUMPI PUSH1 0x6 SLOAD PUSH1 0x9 SLOAD PUSH1 0x40 MLOAD PUSH1 0x1 PUSH1 0x1 PUSH1 0xA0 SHL SUB SWAP1 SWAP3 AND SWAP2 DUP2 ISZERO PUSH2 0x8FC MUL SWAP2 SWAP1 PUSH1 0x0 DUP2 DUP2 DUP2 DUP6 DUP9 DUP9 CALL SWAP4 POP POP POP POP ISZERO DUP1 ISZERO PUSH2 0x8C2 JUMPI RETURNDATASIZE PUSH1 0x0 DUP1 RETURNDATACOPY RETURNDATASIZE PUSH1 0x0 REVERT JUMPDEST POP PUSH2 0x95D JUMP JUMPDEST PUSH1 0x0 PUSH1 0x4 SLOAD PUSH1 0x9 SLOAD DUP4 PUSH2 0x8DB SWAP2 SWAP1 PUSH2 0x10BB JUMP JUMPDEST PUSH2 0x8E5 SWAP2 SWAP1 PUSH2 0x10DA JUMP JUMPDEST PUSH1 0x6 SLOAD PUSH1 0x40 MLOAD SWAP2 SWAP3 POP PUSH1 0x1 PUSH1 0x1 PUSH1 0xA0 SHL SUB AND SWAP1 DUP3 ISZERO PUSH2 0x8FC MUL SWAP1 DUP4 SWAP1 PUSH1 0x0 DUP2 DUP2 DUP2 DUP6 DUP9 DUP9 CALL SWAP4 POP POP POP POP ISZERO DUP1 ISZERO PUSH2 0x920 JUMPI RETURNDATASIZE PUSH1 0x0 DUP1 RETURNDATACOPY RETURNDATASIZE PUSH1 0x0 REVERT JUMPDEST POP PUSH1 0x5 SLOAD PUSH1 0x40 MLOAD PUSH1 0x1 PUSH1 0x1 PUSH1 0xA0 SHL SUB SWAP1 SWAP2 AND SWAP1 SELFBALANCE DUP1 ISZERO PUSH2 0x8FC MUL SWAP2 PUSH1 0x0 DUP2 DUP2 DUP2 DUP6 DUP9 DUP9 CALL SWAP4 POP POP POP POP ISZERO DUP1 ISZERO PUSH2 0x95A JUMPI RETURNDATASIZE PUSH1 0x0 DUP1 RETURNDATACOPY RETURNDATASIZE PUSH1 0x0 REVERT JUMPDEST POP POP JUMPDEST PUSH1 0xA PUSH1 0x0 SWAP1 SLOAD SWAP1 PUSH2 0x100 EXP SWAP1 DIV PUSH1 0x1 PUSH1 0x1 PUSH1 0xA0 SHL SUB AND PUSH1 0x1 PUSH1 0x1 PUSH1 0xA0 SHL SUB AND PUSH4 0x8A7CADF1 PUSH1 0x40 MLOAD DUP2 PUSH4 0xFFFFFFFF AND PUSH1 0xE0 SHL DUP2 MSTORE PUSH1 0x4 ADD PUSH1 0x0 PUSH1 0x40 MLOAD DUP1 DUP4 SUB DUP2 PUSH1 0x0 DUP8 DUP1 EXTCODESIZE ISZERO DUP1 ISZERO PUSH2 0x9AD JUMPI PUSH1 0x0 DUP1 REVERT JUMPDEST POP GAS CALL ISZERO DUP1 ISZERO PUSH2 0x9C1 JUMPI RETURNDATASIZE PUSH1 0x0 DUP1 RETURNDATACOPY RETURNDATASIZE PUSH1 0x0 REVERT JUMPDEST POP POP PUSH1 0xA DUP1 SLOAD PUSH1 0xFF PUSH1 0xA0 SHL NOT AND PUSH1 0x1 PUSH1 0xA2 SHL OR SWAP1 SSTORE POP POP POP JUMP JUMPDEST PUSH1 0x0 SLOAD PUSH1 0x60 SWAP1 PUSH1 0x1 PUSH1 0x1 PUSH1 0xA0 SHL SUB AND CALLER EQ PUSH2 0xA08 JUMPI PUSH1 0x40 MLOAD PUSH3 0x461BCD PUSH1 0xE5 SHL DUP2 MSTORE PUSH1 0x4 ADD PUSH2 0x28F SWAP1 PUSH2 0x104F JUMP JUMPDEST PUSH1 0x7 DUP1 SLOAD PUSH2 0xA15 SWAP1 PUSH2 0x10FC JUMP JUMPDEST DUP1 PUSH1 0x1F ADD PUSH1 0x20 DUP1 SWAP2 DIV MUL PUSH1 0x20 ADD PUSH1 0x40 MLOAD SWAP1 DUP2 ADD PUSH1 0x40 MSTORE DUP1 SWAP3 SWAP2 SWAP1 DUP2 DUP2 MSTORE PUSH1 0x20 ADD DUP3 DUP1 SLOAD PUSH2 0xA41 SWAP1 PUSH2 0x10FC JUMP JUMPDEST DUP1 ISZERO PUSH2 0xA8E JUMPI DUP1 PUSH1 0x1F LT PUSH2 0xA63 JUMPI PUSH2 0x100 DUP1 DUP4 SLOAD DIV MUL DUP4 MSTORE SWAP2 PUSH1 0x20 ADD SWAP2 PUSH2 0xA8E JUMP JUMPDEST DUP3 ADD SWAP2 SWAP1 PUSH1 0x0 MSTORE PUSH1 0x20 PUSH1 0x0 KECCAK256 SWAP1 JUMPDEST DUP2 SLOAD DUP2 MSTORE SWAP1 PUSH1 0x1 ADD SWAP1 PUSH1 0x20 ADD DUP1 DUP4 GT PUSH2 0xA71 JUMPI DUP3 SWAP1 SUB PUSH1 0x1F AND DUP3 ADD SWAP2 JUMPDEST POP POP POP POP POP SWAP1 POP SWAP1 JUMP JUMPDEST PUSH1 0x0 SLOAD PUSH1 0x60 SWAP1 PUSH1 0x1 PUSH1 0x1 PUSH1 0xA0 SHL SUB AND CALLER EQ PUSH2 0xAC5 JUMPI PUSH1 0x40 MLOAD PUSH3 0x461BCD PUSH1 0xE5 SHL DUP2 MSTORE PUSH1 0x4 ADD PUSH2 0x28F SWAP1 PUSH2 0x104F JUMP JUMPDEST PUSH1 0x1 PUSH1 0xA SLOAD PUSH1 0x1 PUSH1 0xA0 SHL SWAP1 DIV PUSH1 0xFF AND PUSH1 0x4 DUP2 GT ISZERO PUSH2 0xAE5 JUMPI PUSH2 0xAE5 PUSH2 0xDE8 JUMP JUMPDEST LT ISZERO PUSH2 0xB33 JUMPI PUSH1 0x40 MLOAD PUSH3 0x461BCD PUSH1 0xE5 SHL DUP2 MSTORE PUSH1 0x20 PUSH1 0x4 DUP3 ADD MSTORE PUSH1 0x1D PUSH1 0x24 DUP3 ADD MSTORE PUSH32 0x53657373696F6E206973207061737420636F6E66696775726174696F6E000000 PUSH1 0x44 DUP3 ADD MSTORE PUSH1 0x64 ADD PUSH2 0x28F JUMP JUMPDEST PUSH1 0x4 PUSH1 0xA SLOAD PUSH1 0x1 PUSH1 0xA0 SHL SWAP1 DIV PUSH1 0xFF AND PUSH1 0x4 DUP2 GT ISZERO PUSH2 0xB53 JUMPI PUSH2 0xB53 PUSH2 0xDE8 JUMP JUMPDEST LT PUSH2 0xB96 JUMPI PUSH1 0x40 MLOAD PUSH3 0x461BCD PUSH1 0xE5 SHL DUP2 MSTORE PUSH1 0x20 PUSH1 0x4 DUP3 ADD MSTORE PUSH1 0x13 PUSH1 0x24 DUP3 ADD MSTORE PUSH19 0x14D95CDCDA5BDB881A5CC81C995CDBDB1D9959 PUSH1 0x6A SHL PUSH1 0x44 DUP3 ADD MSTORE PUSH1 0x64 ADD PUSH2 0x28F JUMP JUMPDEST PUSH1 0x6 SLOAD PUSH1 0x0 SWAP1 PUSH2 0xBB0 SWAP1 CALLER SWAP1 PUSH1 0x1 PUSH1 0x1 PUSH1 0xA0 SHL SUB AND PUSH2 0xC54 JUMP JUMPDEST PUSH1 0x0 DUP2 DUP2 MSTORE PUSH1 0x8 PUSH1 0x20 MSTORE PUSH1 0x40 DUP2 KECCAK256 DUP1 SLOAD SWAP3 SWAP4 POP SWAP1 SWAP2 PUSH2 0xBCE SWAP1 PUSH2 0x10FC JUMP JUMPDEST DUP1 PUSH1 0x1F ADD PUSH1 0x20 DUP1 SWAP2 DIV MUL PUSH1 0x20 ADD PUSH1 0x40 MLOAD SWAP1 DUP2 ADD PUSH1 0x40 MSTORE DUP1 SWAP3 SWAP2 SWAP1 DUP2 DUP2 MSTORE PUSH1 0x20 ADD DUP3 DUP1 SLOAD PUSH2 0xBFA SWAP1 PUSH2 0x10FC JUMP JUMPDEST DUP1 ISZERO PUSH2 0xC47 JUMPI DUP1 PUSH1 0x1F LT PUSH2 0xC1C JUMPI PUSH2 0x100 DUP1 DUP4 SLOAD DIV MUL DUP4 MSTORE SWAP2 PUSH1 0x20 ADD SWAP2 PUSH2 0xC47 JUMP JUMPDEST DUP3 ADD SWAP2 SWAP1 PUSH1 0x0 MSTORE PUSH1 0x20 PUSH1 0x0 KECCAK256 SWAP1 JUMPDEST DUP2 SLOAD DUP2 MSTORE SWAP1 PUSH1 0x1 ADD SWAP1 PUSH1 0x20 ADD DUP1 DUP4 GT PUSH2 0xC2A JUMPI DUP3 SWAP1 SUB PUSH1 0x1F AND DUP3 ADD SWAP2 JUMPDEST POP SWAP4 SWAP7 POP POP POP POP POP POP POP SWAP1 JUMP JUMPDEST PUSH1 0x0 DUP2 PUSH1 0x1 PUSH1 0x1 PUSH1 0xA0 SHL SUB AND DUP4 PUSH1 0x1 PUSH1 0x1 PUSH1 0xA0 SHL SUB AND LT ISZERO PUSH2 0xCB7 JUMPI PUSH1 0x40 MLOAD PUSH12 0xFFFFFFFFFFFFFFFFFFFFFFFF NOT PUSH1 0x60 DUP6 DUP2 SHL DUP3 AND PUSH1 0x20 DUP5 ADD MSTORE DUP5 SWAP1 SHL AND PUSH1 0x34 DUP3 ADD MSTORE PUSH1 0x48 ADD JUMPDEST PUSH1 0x40 MLOAD PUSH1 0x20 DUP2 DUP4 SUB SUB DUP2 MSTORE SWAP1 PUSH1 0x40 MSTORE DUP1 MLOAD SWAP1 PUSH1 0x20 ADD KECCAK256 SWAP1 POP PUSH2 0xCE5 JUMP JUMPDEST PUSH1 0x40 MLOAD PUSH12 0xFFFFFFFFFFFFFFFFFFFFFFFF NOT PUSH1 0x60 DUP5 DUP2 SHL DUP3 AND PUSH1 0x20 DUP5 ADD MSTORE DUP6 SWAP1 SHL AND PUSH1 0x34 DUP3 ADD MSTORE PUSH1 0x48 ADD PUSH2 0xC9A JUMP JUMPDEST SWAP3 SWAP2 POP POP JUMP JUMPDEST PUSH1 0x0 DUP1 PUSH1 0x4 SLOAD PUSH1 0x1 PUSH2 0xCFD SWAP2 SWAP1 PUSH2 0x1037 JUMP JUMPDEST PUSH2 0xD08 SWAP1 PUSH1 0xA PUSH2 0x121A JUMP JUMPDEST PUSH1 0x1 SLOAD PUSH2 0xD15 SWAP1 TIMESTAMP PUSH2 0x1226 JUMP JUMPDEST PUSH2 0xD1F SWAP2 SWAP1 PUSH2 0x10BB JUMP JUMPDEST SWAP1 POP PUSH1 0x0 PUSH1 0xA PUSH1 0x3 SLOAD DUP4 PUSH2 0xD33 SWAP2 SWAP1 PUSH2 0x10DA JUMP JUMPDEST PUSH2 0xD3E SWAP1 PUSH1 0x5 PUSH2 0x1037 JUMP JUMPDEST PUSH2 0xD48 SWAP2 SWAP1 PUSH2 0x10DA JUMP JUMPDEST SWAP4 SWAP3 POP POP POP JUMP JUMPDEST DUP3 DUP1 SLOAD PUSH2 0xD5B SWAP1 PUSH2 0x10FC JUMP JUMPDEST SWAP1 PUSH1 0x0 MSTORE PUSH1 0x20 PUSH1 0x0 KECCAK256 SWAP1 PUSH1 0x1F ADD PUSH1 0x20 SWAP1 DIV DUP2 ADD SWAP3 DUP3 PUSH2 0xD7D JUMPI PUSH1 0x0 DUP6 SSTORE PUSH2 0xDC3 JUMP JUMPDEST DUP3 PUSH1 0x1F LT PUSH2 0xD96 JUMPI DUP1 MLOAD PUSH1 0xFF NOT AND DUP4 DUP1 ADD OR DUP6 SSTORE PUSH2 0xDC3 JUMP JUMPDEST DUP3 DUP1 ADD PUSH1 0x1 ADD DUP6 SSTORE DUP3 ISZERO PUSH2 0xDC3 JUMPI SWAP2 DUP3 ADD JUMPDEST DUP3 DUP2 GT ISZERO PUSH2 0xDC3 JUMPI DUP3 MLOAD DUP3 SSTORE SWAP2 PUSH1 0x20 ADD SWAP2 SWAP1 PUSH1 0x1 ADD SWAP1 PUSH2 0xDA8 JUMP JUMPDEST POP PUSH2 0xDCF SWAP3 SWAP2 POP PUSH2 0xDD3 JUMP JUMPDEST POP SWAP1 JUMP JUMPDEST JUMPDEST DUP1 DUP3 GT ISZERO PUSH2 0xDCF JUMPI PUSH1 0x0 DUP2 SSTORE PUSH1 0x1 ADD PUSH2 0xDD4 JUMP JUMPDEST PUSH4 0x4E487B71 PUSH1 0xE0 SHL PUSH1 0x0 MSTORE PUSH1 0x21 PUSH1 0x4 MSTORE PUSH1 0x24 PUSH1 0x0 REVERT JUMPDEST PUSH1 0x20 DUP2 ADD PUSH1 0x5 DUP4 LT PUSH2 0xE20 JUMPI PUSH4 0x4E487B71 PUSH1 0xE0 SHL PUSH1 0x0 MSTORE PUSH1 0x21 PUSH1 0x4 MSTORE PUSH1 0x24 PUSH1 0x0 REVERT JUMPDEST SWAP2 SWAP1 MSTORE SWAP1 JUMP JUMPDEST PUSH1 0x0 PUSH1 0x20 DUP3 DUP5 SUB SLT ISZERO PUSH2 0xE38 JUMPI PUSH1 0x0 DUP1 REVERT JUMPDEST POP CALLDATALOAD SWAP2 SWAP1 POP JUMP JUMPDEST PUSH4 0x4E487B71 PUSH1 0xE0 SHL PUSH1 0x0 MSTORE PUSH1 0x41 PUSH1 0x4 MSTORE PUSH1 0x24 PUSH1 0x0 REVERT JUMPDEST PUSH1 0x0 DUP3 PUSH1 0x1F DUP4 ADD SLT PUSH2 0xE66 JUMPI PUSH1 0x0 DUP1 REVERT JUMPDEST DUP2 CALLDATALOAD PUSH8 0xFFFFFFFFFFFFFFFF DUP1 DUP3 GT ISZERO PUSH2 0xE81 JUMPI PUSH2 0xE81 PUSH2 0xE3F JUMP JUMPDEST PUSH1 0x40 MLOAD PUSH1 0x1F DUP4 ADD PUSH1 0x1F NOT SWAP1 DUP2 AND PUSH1 0x3F ADD AND DUP2 ADD SWAP1 DUP3 DUP3 GT DUP2 DUP4 LT OR ISZERO PUSH2 0xEA9 JUMPI PUSH2 0xEA9 PUSH2 0xE3F JUMP JUMPDEST DUP2 PUSH1 0x40 MSTORE DUP4 DUP2 MSTORE DUP7 PUSH1 0x20 DUP6 DUP9 ADD ADD GT ISZERO PUSH2 0xEC2 JUMPI PUSH1 0x0 DUP1 REVERT JUMPDEST DUP4 PUSH1 0x20 DUP8 ADD PUSH1 0x20 DUP4 ADD CALLDATACOPY PUSH1 0x0 PUSH1 0x20 DUP6 DUP4 ADD ADD MSTORE DUP1 SWAP5 POP POP POP POP POP SWAP3 SWAP2 POP POP JUMP JUMPDEST PUSH1 0x0 DUP1 PUSH1 0x40 DUP4 DUP6 SUB SLT ISZERO PUSH2 0xEF5 JUMPI PUSH1 0x0 DUP1 REVERT JUMPDEST DUP3 CALLDATALOAD PUSH8 0xFFFFFFFFFFFFFFFF DUP1 DUP3 GT ISZERO PUSH2 0xF0D JUMPI PUSH1 0x0 DUP1 REVERT JUMPDEST PUSH2 0xF19 DUP7 DUP4 DUP8 ADD PUSH2 0xE55 JUMP JUMPDEST SWAP4 POP PUSH1 0x20 DUP6 ADD CALLDATALOAD SWAP2 POP DUP1 DUP3 GT ISZERO PUSH2 0xF2F JUMPI PUSH1 0x0 DUP1 REVERT JUMPDEST POP PUSH2 0xF3C DUP6 DUP3 DUP7 ADD PUSH2 0xE55 JUMP JUMPDEST SWAP2 POP POP SWAP3 POP SWAP3 SWAP1 POP JUMP JUMPDEST PUSH1 0x0 PUSH1 0x20 DUP3 DUP5 SUB SLT ISZERO PUSH2 0xF58 JUMPI PUSH1 0x0 DUP1 REVERT JUMPDEST DUP2 CALLDATALOAD PUSH1 0x1 PUSH1 0x1 PUSH1 0xA0 SHL SUB DUP2 AND DUP2 EQ PUSH2 0xD48 JUMPI PUSH1 0x0 DUP1 REVERT JUMPDEST PUSH1 0x0 DUP2 MLOAD DUP1 DUP5 MSTORE PUSH1 0x0 JUMPDEST DUP2 DUP2 LT ISZERO PUSH2 0xF95 JUMPI PUSH1 0x20 DUP2 DUP6 ADD DUP2 ADD MLOAD DUP7 DUP4 ADD DUP3 ADD MSTORE ADD PUSH2 0xF79 JUMP JUMPDEST DUP2 DUP2 GT ISZERO PUSH2 0xFA7 JUMPI PUSH1 0x0 PUSH1 0x20 DUP4 DUP8 ADD ADD MSTORE JUMPDEST POP PUSH1 0x1F ADD PUSH1 0x1F NOT AND SWAP3 SWAP1 SWAP3 ADD PUSH1 0x20 ADD SWAP3 SWAP2 POP POP JUMP JUMPDEST PUSH1 0x40 DUP2 MSTORE PUSH1 0x0 PUSH2 0xFCF PUSH1 0x40 DUP4 ADD DUP6 PUSH2 0xF6F JUMP JUMPDEST DUP3 DUP2 SUB PUSH1 0x20 DUP5 ADD MSTORE PUSH2 0xFE1 DUP2 DUP6 PUSH2 0xF6F JUMP JUMPDEST SWAP6 SWAP5 POP POP POP POP POP JUMP JUMPDEST PUSH1 0x20 DUP1 DUP3 MSTORE PUSH1 0x17 SWAP1 DUP3 ADD MSTORE PUSH32 0x596F7520617265206E6F742074686520666163746F7279000000000000000000 PUSH1 0x40 DUP3 ADD MSTORE PUSH1 0x60 ADD SWAP1 JUMP JUMPDEST PUSH4 0x4E487B71 PUSH1 0xE0 SHL PUSH1 0x0 MSTORE PUSH1 0x11 PUSH1 0x4 MSTORE PUSH1 0x24 PUSH1 0x0 REVERT JUMPDEST PUSH1 0x0 DUP3 NOT DUP3 GT ISZERO PUSH2 0x104A JUMPI PUSH2 0x104A PUSH2 0x1021 JUMP JUMPDEST POP ADD SWAP1 JUMP JUMPDEST PUSH1 0x20 DUP1 DUP3 MSTORE DUP2 DUP2 ADD MSTORE PUSH32 0x4F776E61626C653A2063616C6C6572206973206E6F7420746865206F776E6572 PUSH1 0x40 DUP3 ADD MSTORE PUSH1 0x60 ADD SWAP1 JUMP JUMPDEST PUSH1 0x20 DUP1 DUP3 MSTORE PUSH1 0x1D SWAP1 DUP3 ADD MSTORE PUSH32 0x596F7520617265206E6F742073657373696F6E73205068616573747573000000 PUSH1 0x40 DUP3 ADD MSTORE PUSH1 0x60 ADD SWAP1 JUMP JUMPDEST PUSH1 0x0 DUP2 PUSH1 0x0 NOT DIV DUP4 GT DUP3 ISZERO ISZERO AND ISZERO PUSH2 0x10D5 JUMPI PUSH2 0x10D5 PUSH2 0x1021 JUMP JUMPDEST POP MUL SWAP1 JUMP JUMPDEST PUSH1 0x0 DUP3 PUSH2 0x10F7 JUMPI PUSH4 0x4E487B71 PUSH1 0xE0 SHL PUSH1 0x0 MSTORE PUSH1 0x12 PUSH1 0x4 MSTORE PUSH1 0x24 PUSH1 0x0 REVERT JUMPDEST POP DIV SWAP1 JUMP JUMPDEST PUSH1 0x1 DUP2 DUP2 SHR SWAP1 DUP3 AND DUP1 PUSH2 0x1110 JUMPI PUSH1 0x7F DUP3 AND SWAP2 POP JUMPDEST PUSH1 0x20 DUP3 LT DUP2 SUB PUSH2 0x1130 JUMPI PUSH4 0x4E487B71 PUSH1 0xE0 SHL PUSH1 0x0 MSTORE PUSH1 0x22 PUSH1 0x4 MSTORE PUSH1 0x24 PUSH1 0x0 REVERT JUMPDEST POP SWAP2 SWAP1 POP JUMP JUMPDEST PUSH1 0x1 DUP2 DUP2 JUMPDEST DUP1 DUP6 GT ISZERO PUSH2 0x1171 JUMPI DUP2 PUSH1 0x0 NOT DIV DUP3 GT ISZERO PUSH2 0x1157 JUMPI PUSH2 0x1157 PUSH2 0x1021 JUMP JUMPDEST DUP1 DUP6 AND ISZERO PUSH2 0x1164 JUMPI SWAP2 DUP2 MUL SWAP2 JUMPDEST SWAP4 DUP5 SHR SWAP4 SWAP1 DUP1 MUL SWAP1 PUSH2 0x113B JUMP JUMPDEST POP SWAP3 POP SWAP3 SWAP1 POP JUMP JUMPDEST PUSH1 0x0 DUP3 PUSH2 0x1188 JUMPI POP PUSH1 0x1 PUSH2 0xCE5 JUMP JUMPDEST DUP2 PUSH2 0x1195 JUMPI POP PUSH1 0x0 PUSH2 0xCE5 JUMP JUMPDEST DUP2 PUSH1 0x1 DUP2 EQ PUSH2 0x11AB JUMPI PUSH1 0x2 DUP2 EQ PUSH2 0x11B5 JUMPI PUSH2 0x11D1 JUMP JUMPDEST PUSH1 0x1 SWAP2 POP POP PUSH2 0xCE5 JUMP JUMPDEST PUSH1 0xFF DUP5 GT ISZERO PUSH2 0x11C6 JUMPI PUSH2 0x11C6 PUSH2 0x1021 JUMP JUMPDEST POP POP PUSH1 0x1 DUP3 SHL PUSH2 0xCE5 JUMP JUMPDEST POP PUSH1 0x20 DUP4 LT PUSH2 0x133 DUP4 LT AND PUSH1 0x4E DUP5 LT PUSH1 0xB DUP5 LT AND OR ISZERO PUSH2 0x11F4 JUMPI POP DUP2 DUP2 EXP PUSH2 0xCE5 JUMP JUMPDEST PUSH2 0x11FE DUP4 DUP4 PUSH2 0x1136 JUMP JUMPDEST DUP1 PUSH1 0x0 NOT DIV DUP3 GT ISZERO PUSH2 0x1212 JUMPI PUSH2 0x1212 PUSH2 0x1021 JUMP JUMPDEST MUL SWAP4 SWAP3 POP POP POP JUMP JUMPDEST PUSH1 0x0 PUSH2 0xD48 DUP4 DUP4 PUSH2 0x1179 JUMP JUMPDEST PUSH1 0x0 DUP3 DUP3 LT ISZERO PUSH2 0x1238 JUMPI PUSH2 0x1238 PUSH2 0x1021 JUMP JUMPDEST POP SUB SWAP1 JUMP INVALID LOG2 PUSH5 0x6970667358 0x22 SLT KECCAK256 0xB8 0xBA 0xDF SWAP7 0xF9 DUP12 0x28 MULMOD 0xF8 0xB9 SELFDESTRUCT 0xC2 0xC0 0x23 MUL DUP16 PUSH27 0x505E90EC3A1EBBAB574E4C078F33FE64736F6C634300080E0033A2 PUSH5 0x6970667358 0x22 SLT KECCAK256 DUP13 0xE4 PUSH6 0x3FB3657E7948 0xDE 0x4B CALLDATALOAD PUSH25 0x4AF4A002C90E8C97FEF2D1CC6747939CFC526C64736F6C6343 STOP ADDMOD 0xE STOP CALLER ",
  "sha1": "0ea2d851ab04ec2a2b7c3931c75982deece711da",
  "source": "// SPDX-License-Identifier: MIT\n\npragma solidity >=0.7.0 <0.9.0;\n\nimport \"@chainlink/contracts/src/v0.8/interfaces/AggregatorV3Interface.sol\";\nimport \"./TorpedoSession.sol\";\n\ncontract TorpedoFactory {\n    // ---------------------------- Constants ----------------------------\n\n    // Save the owner address\n    address public owner;\n    uint256 rate_precision = 100;\n    uint256 LARGE_NUMBER = 10000000000000;\n    uint256[] minimals;\n\n    // Contract to get accurate pricing data\n    AggregatorV3Interface public priceFeed;\n\n    // ---------------------------- Structs/Enums--------------------------------\n\n    // GPU types\n    enum gpuType {\n        NONE,\n        _3090,\n        A100\n    }\n\n    // Phaestus Object\n    struct Phaestus {\n        address payable phaestusAddress;\n        uint8 numCPUs;\n        uint8 numGPUs;\n        uint256 endTime; // in hours\n        uint256 rate; // USD per hour rate of the node\n        gpuType gpuType;\n    }\n\n    // Session Request Object:\n    struct SessionRequest {\n        uint8 numCPUs;\n        uint8 numGPUs;\n        uint16 totalTime; // in hours\n        gpuType gpuType;\n    }\n\n    // ---------------------------- Mappings ---------------------------------\n\n    // Mappings for user addresses to Clients or Phaestus nodes.\n    mapping(address => address) clientToSession;\n    mapping(address => Phaestus) public addressToPhaestus;\n\n    // ---------------------------- Storage Arrays ---------------------------------\n\n    //Storing Phaestus Nodes in arrays\n    Phaestus[] public phaestusNodes;\n\n    // ---------------------------- Modifiers ---------------------------------\n\n    modifier onlyOwner() {\n        require(msg.sender == owner, \"You are not the Owner\");\n        _;\n    }\n\n    // ---------------------------- Constructor ---------------------------------\n\n    constructor(address _priceFeed) public {\n        priceFeed = AggregatorV3Interface(_priceFeed);\n        owner = msg.sender;\n    }\n\n    // ----------------------------  Public View Functions ---------------------------------\n\n    // View phaestus nodes\n    function viewPhaestus(uint256 index) public view returns (Phaestus memory) {\n        return phaestusNodes[index];\n    }\n\n    // Returns cost in USD\n    function calculateUSDCost(SessionRequest memory sessionRequest)\n        public\n        view\n        returns (uint256)\n    {\n        // Finds the cheapest phaestus node with the required services\n        uint256 index = findBestPhaestus(sessionRequest);\n\n        // retrieve rate and use it to calculate total amount\n        uint256 cost = phaestusNodes[uint256(index)].rate *\n            sessionRequest.totalTime;\n\n        return cost;\n    }\n\n    //returns the rate precision\n    function getRatePrecision() public view returns (uint256) {\n        return rate_precision;\n    }\n\n    // Return cost in Wei (times the precision)\n    function calculateWeiCost(SessionRequest memory sessionRequest)\n        public\n        view\n        returns (uint256)\n    {\n        uint256 cost = USDToWei(calculateUSDCost(sessionRequest)) /\n            rate_precision;\n        return cost;\n    }\n\n    // Converts Eth to USD\n    function EthToUSD(uint256 ethAmount) public view returns (uint256) {\n        uint256 ethPrice = getPrice();\n        uint256 ethAmountInUsd = (ethPrice * ethAmount) / 1000000000000000000;\n        return ethAmountInUsd;\n    }\n\n    // Converts USD to Wei\n    function USDToWei(uint256 USD) public view returns (uint256) {\n        // minimumUSD\n        uint256 minimumUSD = USD * 10**18;\n        uint256 price = getPrice();\n        uint256 precision = 1 * 10**18;\n        // return (minimumUSD * precision) / price;\n        // We fixed a rounding error by adding one!\n        return ((minimumUSD * precision) / price) + 1;\n    }\n\n    // Get current time\n    function getNow() public view returns (uint256) {\n        return block.timestamp;\n    }\n\n    //Get maxes on all parameters\n    function getPoolCapacity()\n        public\n        view\n        returns (\n            uint256,\n            uint256,\n            uint256\n        )\n    {\n        // Arbitrary large number (fix later)\n        uint256 maxCPUs = 0;\n        uint256 maxGPUs = 0;\n        // uint256 maxRAM = 0;\n        uint256 maxTime = 0;\n        uint256 i;\n\n        //Loop over all available phaestus nodes:\n        for (i = 0; i < phaestusNodes.length; i++) {\n            Phaestus memory p = phaestusNodes[i];\n            if (p.numCPUs > maxCPUs) {\n                maxCPUs = p.numCPUs;\n            }\n            if (p.numGPUs > maxGPUs) {\n                maxGPUs = p.numGPUs;\n            }\n            if (p.endTime > maxTime) {\n                maxTime = p.endTime;\n            }\n        }\n\n        return (maxCPUs, maxGPUs, maxTime);\n    }\n\n    // ----------------------------  Internal functions ---------------------------------\n\n    // finding cheapest phaestus node that satisfies session params\n    function findBestPhaestus(SessionRequest memory sessionRequest)\n        internal\n        view\n        returns (uint256)\n    {\n        // Arbitrary large number (fix later)\n        uint256 min_index = LARGE_NUMBER;\n        uint256 min_rate = LARGE_NUMBER;\n        uint256 i;\n\n        for (i = 0; i < phaestusNodes.length; i++) {\n            Phaestus memory p = phaestusNodes[i];\n\n            if (\n                p.numCPUs >= sessionRequest.numCPUs &&\n                p.numGPUs >= sessionRequest.numGPUs &&\n                min_rate > p.rate &&\n                p.gpuType == sessionRequest.gpuType\n            ) {\n                min_rate = p.rate;\n                min_index = i;\n            }\n        }\n        return min_index;\n    }\n\n    // Get price of ETH\n    function getPrice() internal view returns (uint256) {\n        (, int256 answer, , , ) = priceFeed.latestRoundData();\n        return uint256(answer * 10000000000);\n    }\n\n    // Finds all nodes with lowest rate that satisfy the session params\n    function findAllBestPhaestus(SessionRequest memory sessionRequest)\n        internal\n        returns (uint256[] storage)\n    {\n        uint256 i = findBestPhaestus(sessionRequest);\n        Phaestus memory best = phaestusNodes[i];\n\n        for (uint256 j = 0; j < phaestusNodes.length; j++) {\n            Phaestus memory p = phaestusNodes[j];\n\n            if (p.rate == best.rate) {\n                minimals.push(j);\n            }\n        }\n        return minimals;\n    }\n\n    // ----------------------------  External functions ---------------------------------\n\n    // Register a Phaestus Node\n    // Make payable later, and require collateral...build reputation\n    // PHAESTUS NODE CALLS THIS FUNCTION TO REGISTER ITSELF\n    function registerPhaestus(\n        uint8 numCPUs,\n        uint8 numGPUs,\n        uint256 endTime,\n        uint256 rate,\n        gpuType _gpuType\n    ) external {\n        // Phaestus node has at least 2 CPUS, non-zero GPUs and is online for 4 hours\n        require(numCPUs >= 2, \"Must have at least 2 CPU cores\");\n        require(numGPUs >= 0, \"GPUs must be non-negative\");\n        require(\n            endTime > block.timestamp + 4 * 3600 * 4,\n            \"Phaestus must be online for at least 4 hours\"\n        );\n        if (numGPUs > 0) {\n            require(\n                _gpuType != gpuType.NONE,\n                \"You have a GPU. Specify type please\"\n            );\n        }\n\n        // Add node to the list of nodes\n        phaestusNodes.push(\n            Phaestus({\n                phaestusAddress: payable(msg.sender),\n                numCPUs: numCPUs,\n                numGPUs: numGPUs,\n                endTime: endTime,\n                rate: rate,\n                gpuType: _gpuType\n            })\n        );\n\n        addressToPhaestus[msg.sender] = phaestusNodes[phaestusNodes.length - 1];\n    }\n\n    // How to protect these functions! Check this\n    function deductResources() external {\n        TorpedoSession session = TorpedoSession(msg.sender);\n\n        // phaestus can use past session creds to change resource values...FIX ME\n\n        Phaestus storage p = addressToPhaestus[session.getPhaestusAddress()];\n\n        p.numCPUs -= session.numCPUs();\n        p.numGPUs -= session.numGPUs();\n        // addressToPhaestus[msg.sender] = p;\n        // addressToPhaestus[msg.sender].numCPUs -= _numCPUs;\n        // addressToPhaestus[msg.sender].numGPUs -= _numGPUs;\n    }\n\n    function releaseResources() external {\n        TorpedoSession session = TorpedoSession(msg.sender);\n\n        Phaestus storage p = addressToPhaestus[session.getPhaestusAddress()];\n\n        p.numCPUs += session.numCPUs();\n        p.numGPUs += session.numGPUs();\n        // addressToPhaestus[msg.sender].numCPUs += _numCPUs;\n        // addressToPhaestus[msg.sender].numGPUs += _numGPUs;\n    }\n\n    // ----------------------------  Payable functions ---------------------------------\n\n    // CLIENT WILL USE THIS FUNCTION TO INSTANTIATE A SESSION\n    function createSession(SessionRequest memory sessionRequest)\n        public\n        payable\n        returns (address)\n    {\n        // check payment is at least what is required\n        require(\n            msg.value >= calculateWeiCost(sessionRequest),\n            \"insufficient payment\"\n        );\n\n        // Find all phaestus nodes that offer that rate\n        minimals = findAllBestPhaestus(sessionRequest);\n\n        // @dev Eventually switch to oracle source of randomness\n        //select a phaestus node at random from the above valid nodes\n        uint256 phaestus_chosen = uint256(\n            keccak256(abi.encodePacked(block.timestamp, block.difficulty))\n        ) % minimals.length;\n        address payable phaestus_address = phaestusNodes[phaestus_chosen]\n            .phaestusAddress;\n\n        // Initiate session contract with client and phaestus\n        TorpedoSession _clientSession = (new TorpedoSession){value: msg.value}(\n            sessionRequest.numCPUs,\n            sessionRequest.numGPUs,\n            sessionRequest.totalTime,\n            sessionRequest.gpuType,\n            payable(msg.sender),\n            phaestus_address\n        );\n\n        // map client address to session contract address\n        clientToSession[msg.sender] = address(_clientSession);\n\n        // Reset minimals array\n        minimals = new uint256[](0);\n\n        // Return session contract address\n        return address(_clientSession);\n    }\n\n    // CLIENT CALLS THIS TO EXTEND SESSION\n    function extendSession(uint256 addedTime) public payable {\n        address _sessionAddress = clientToSession[msg.sender];\n        // require(_sessionAddress != 0, \"You are an invalid client\");\n        TorpedoSession session = TorpedoSession(_sessionAddress);\n        address payable _phaestus = session.getPhaestusAddress();\n\n        require(\n            msg.sender == session.getClientAddress(),\n            \"Sender is not client of the session\"\n        );\n        require(\n            block.timestamp + addedTime < addressToPhaestus[_phaestus].endTime,\n            \"This phaestus won't be online for that long\"\n        );\n\n        uint256 addedCost = USDToWei(\n            addressToPhaestus[_phaestus].rate * addedTime\n        ) / rate_precision;\n\n        require(msg.value > addedCost, \"Insufficient payment\");\n\n        session.extendSession{value: msg.value}(addedTime);\n    }\n\n    function getClientSessionAddress() public view returns (address) {\n        return clientToSession[msg.sender];\n    }\n}\n",
  "sourcePath": "contracts/TorpedoFactory.sol",
  "type": "contract"
}